:020000040000FA
:1000000080310E28080008007E1480312E00161A58
:100010000C1E0C289131CC217E1009008031102853
:100020008731FF278031EF00553084009230850002
:10003000A0308600003087001B308731F9278031DF
:1000400066308400913085004030860001308700A2
:100050000A308731F9278031FC01BB308400003041
:100060008500173091312921803120308400013002
:1000700085002030913129217E1020008C311A2CEE
:10008000003400340034003400343E345B344F34E8
:100090005B343E343E346B344F346B343E341C346A
:1000A0003E347C343E341C3418343C347E343C348E
:1000B00018341C3457347D3457341C341C345E34AB
:1000C0007F345E341C34003418343C34183400342B
:1000D000FF34E734C334E734FF34003418342434B5
:1000E00018340034FF34E734DB34E734FF34303481
:1000F00048343A3406340E342634293479342934D9
:10010000263440347F3405340534073440347F349A
:10011000053425343F345A343C34E7343C345A34C3
:100120007F343E341C341C34083408341C341C34F2
:100130003E347F34143422347F34223414345F3418
:100140005F3400345F345F34063409347F34013463
:100150007F3400346634893495346A3460346034D2
:100160006034603460349434A234FF34A234943464
:10017000083404347E3404340834103420347E349B
:1001800020341034083408342A341C340834083439
:100190001C342A34083408341E341034103410341B
:1001A00010340C341E340C341E340C3430343834D7
:1001B0003E343834303406340E343E340E34063493
:1001C00000340034003400340034003400345F3430
:1001D000003400340034073400340734003414345D
:1001E0007F3414347F34143424342A347F342A3452
:1001F00012342334133408346434623436344934CA
:100200005634203450340034083407340334003476
:1002100000341C342234413400340034413422345C
:100220001C3400342A341C347F341C342A340834FF
:1002300008343E34083408340034803470343034A8
:1002400000340834083408340834083400340034E6
:100250006034603400342034103408340434023400
:100260003E345134493445343E34003442347F34D2
:1002700040340034723449344934493446342134EA
:10028000413449344D3433341834143412347F3407
:100290001034273445344534453439343C344A34F9
:1002A0004934493431344134213411340934073468
:1002B000363449344934493436344634493449347F
:1002C00029341E3400340034143400340034003433
:1002D00040343434003400340034083414342234CC
:1002E0004134143414341434143414340034413488
:1002F00022341434083402340134593409340634B5
:100300003E3441345D3459344E347C34123411342B
:1003100012347C347F3449344934493436343E34E1
:1003200041344134413422347F3441344134413406
:100330003E347F3449344934493441347F340934BC
:100340000934093401343E34413441345134733476
:100350007F340834083408347F34003441347F3427
:10036000413400342034403441343F3401347F344C
:1003700008341434223441347F344034403440341F
:1003800040347F3402341C3402347F347F340434EC
:10039000083410347F343E344134413441343E34E7
:1003A0007F3409340934093406343E34413451343D
:1003B00021345E347F3409341934293446342634E8
:1003C0004934493449343234033401347F340134FC
:1003D00003343F344034403440343F341F342034FD
:1003E000403420341F343F344034383440343F34B8
:1003F00063341434083414346334033404347834E8
:10040000043403346134593449344D3443340034B2
:100410007F344134413441340234043408341034DC
:10042000203400344134413441347F3404340234C4
:1004300001340234043440344034403440344034D5
:100440000034033407340834003420345434543432
:10045000783440347F3428344434443438343834A5
:100460004434443444342834383444344434283410
:100470007F34383454345434543418340034083409
:100480007E34093402341834A434A4349C347834CF
:100490007F340834043404347834003444347D34F4
:1004A000403400342034403440343D3400347F3410
:1004B0001034283444340034003441347F34403420
:1004C00000347C3404347834043478347C34083494
:1004D00004340434783438344434443444343834C0
:1004E000FC34183424342434183418342434243498
:1004F0001834FC347C34083404340434083448346C
:100500005434543454342434043404343F344434A0
:1005100024343C344034403420347C341C34203483
:10052000403420341C343C344034303440343C3487
:10053000443428341034283444344C3490349034C7
:1005400090347C344434643454344C344434003473
:100550000834363441340034003400347734003405
:100560000034003441343634083400340234013469
:100570000234043402343C342634233426343C34EC
:100580001E34A134A134613412343A34403440343E
:1005900020347A3438345434543455345934213472
:1005A0005534553479344134223454345434783405
:1005B0004234213455345434783440342034543463
:1005C0005534793440340C341E345234723412347D
:1005D0003934553455345534593439345434543409
:1005E0005434593439345534543454345834003430
:1005F000003445347C3441340034023445347D3495
:1006000042340034013445347C3440347D34123477
:10061000113412347D34F034283425342834F03445
:100620007C345434553445340034203454345434F8
:100630007C3454347C340A3409347F3449343234C1
:1006400049344934493432343A34443444344434F7
:100650003A3432344A344834483430343A34413409
:10066000413421347A343A344234403420347834BA
:1006700000349D34A034A0347D343D3442344234BF
:1006800042343D343D344034403440343D343C34D5
:100690002434FF342434243448347E3449344334FD
:1006A00066342B342F34FC342F342B34FF3409348C
:1006B0002934F6342034C03488347E340934033489
:1006C00020345434543479344134003400344434C4
:1006D0007D3441343034483448344A343234383448
:1006E0004034403422347A3400347A340A340A34C0
:1006F00072347D340D34193431347D342634293448
:1007000029342F3428342634293429342934263402
:10071000303448344D3440342034383408340834CC
:1007200008340834083408340834083438342F3492
:100730001034C834AC34BA342F3410342834343440
:10074000FA34003400347B34003400340834143478
:100750002A3414342234223414342A34143408341D
:1007600055340034553400345534AA345534AA3441
:100770005534AA34FF345534FF345534FF34003433
:1007800000340034FF340034103410341034FF349B
:100790000034143414341434FF340034103410345E
:1007A000FF340034FF3410341034F0341034F0349B
:1007B000143414341434FC34003414341434F73442
:1007C0000034FF3400340034FF340034FF34143478
:1007D0001434F4340434FC34143414341734103422
:1007E0001F34103410341F3410341F3414341434B4
:1007F00014341F340034103410341034F034003406
:100800000034003400341F341034103410341034E9
:100810001F341034103410341034F03410340034D9
:1008200000340034FF3410341034103410341034D9
:100830001034103410341034FF34103400340034C9
:100840000034FF34143400340034FF340034FF34F7
:10085000003400341F341034173400340034FC34B6
:100860000434F43414341434173410341734143476
:100870001434F4340434F43400340034FF340034D9
:10088000F734143414341434143414341434143445
:10089000F7340034F7341434143414341734143463
:1008A000103410341F3410341F34143414341434FE
:1008B000F434143410341034F0341034F034003480
:1008C00000341F3410341F340034003400341F341B
:1008D0001434003400340034FC3414340034003454
:1008E000F0341034F03410341034FF341034FF344A
:1008F000143414341434FF341434103410341034D9
:100900001F340034003400340034F0341034FF3429
:10091000FF34FF34FF34FF34F034F034F034F0347B
:10092000F034FF34FF34FF3400340034003400343A
:100930000034FF34FF340F340F340F340F340F34CE
:1009400038344434443438344434FC344A344A343B
:100950004A3434347E3402340234063406340234E9
:100960007E3402347E3402346334553449344134A5
:1009700063343834443444343C34043440347E34B6
:1009800020341E342034063402347E3402340234DF
:100990009934A534E734A53499341C342A344934C5
:1009A0002A341C344C347234013472344C343034B4
:1009B0004A344D344D34303430344834783448344B
:1009C0003034BC3462345A3446343D343E344934D5
:1009D0004934493400347E340134013401347E34E6
:1009E0002A342A342A342A342A34443444345F34AE
:1009F00044344434403451344A3444344034403430
:100A000044344A345134403400340034FF34013427
:100A10000334E0348034FF340034003408340834C4
:100A20006B346B3408343634123436342434363470
:100A300006340F3409340F340634003400341834CB
:100A4000183400340034003410341034003430349E
:100A50004034FF340134013400341F340134013494
:100A60001E34003419341D341734123400343C342D
:100A70003C343C343C340034003400340034003422
:100A8000C70020304706031D4A2D210045084604B3
:100A9000031908000D3020004706031D532D2100C7
:100AA000C501C60108000A304706031D682D6F08FE
:100AB000BA00BB01BA35BB0DBA35BB0DBA35BB0D9B
:100AC0003A082100C30720003B082100C43D08006C
:100AD000C9014708BA00BB013A08F1003B08F2001F
:100AE0000530F3000030F40092313A228531403075
:100AF000BC008030BD0071083C07BE0072083D3D5F
:100B0000BF0049083E0784003F0803183F0A8500DC
:100B10000008C0004008C600C801461CFF2D6F0336
:100B2000031DB42D4908210045072000A60021001F
:100B300046080318460A2000A7004808210043077A
:100B40002000A800210044080318440A2000A9003E
:100B5000210023082000AB00210022082000AA0069
:100B600093312B2385317D2E4908BA00BB013A0809
:100B7000F1003B08F2006F08BC00BD013C08F30027
:100B80003D08F40092313A22853121004508710771
:100B90002000A60021004608723D2000A70048085A
:100BA000BE00BF013E08F1003F08F2006F08C00020
:100BB000C1014008F3004108F40092313A22853126
:100BC0002100430871072000A80021004408723D5D
:100BD0002000A9006F08C200C3014208AA00430810
:100BE000AB006F08C400C5014408AC004508AD0067
:100BF000210023082000AF0021002208782E2100C8
:100C000023082106031D062E2208200603197D2E27
:100C100020006F03031D2E2E4908210045072000E8
:100C2000A600210046080318460A2000A70048082D
:100C3000210043072000A800210044080318440AAB
:100C40002000A900210021082000AB00210020087D
:100C50002000AA0093312B2385317D2E4908BA004C
:100C6000BB013A08F1003B08F2006F08BC00BD016F
:100C70003C08F3003D08F40092313A22853121000E
:100C8000450871072000A60021004608723D20009B
:100C9000A7004808BE00BF013E08F1003F08F2006F
:100CA0006F08C000C1014008F3004108F400923110
:100CB0003A2285312100430871072000A800210055
:100CC0004408723D2000A9006F08C200C301420819
:100CD000AA004308AB006F08C400C5014408AC007B
:100CE0004508AD00210021082000AF0021002008A8
:100CF0002000AE0097313D27853101302000BA0039
:100D00003A08C8070310C60C08304802031C8D2D92
:100D10000130BA003A08C90705304902031C692DA1
:100D2000210023082106031D972E220820060319FF
:100D3000FE2E20006F03031DBF2E21004508053E37
:100D40002000A60000302100463D2000A700210021
:100D500044082000A900210043082000A800083012
:100D6000AA000030AB00210021082000AD002100C6
:100D700020082000AC009531B2258531FE2E6F0889
:100D8000BA00BB013A08F1003B08F2000530F3005D
:100D90000030F40092313A22853121004508710774
:100DA0002000A60021004608723D2000A700210077
:100DB00044082000A900210043082000A8006F0873
:100DC000BC00BD013C08AA003D08AB006F08BE0096
:100DD000BF01BE35BF0DBE35BF0DBE35BF0D3E08D0
:100DE000AC003F08AD00210021082000AF00210029
:100DF00020082000AE0097313D27853120006F0884
:100E0000BA00BB013A08F1003B08F2000630F300DB
:100E10000030F40092313A22853171082100C50773
:100E20007208C63D20006F08BA00BB013A08F10005
:100E30003B08F2000630F3000030F40092313A2211
:100E400085312100490871072000BC0021004A08B3
:100E5000723D2000BD002100460820003D02031D18
:100E6000352F2100450820003C0203183C2F2100AB
:100E70004A08C6004908C50020006F08BA00BB0137
:100E80003A08F1003B08F2000530F3000030F400AE
:100E900092313A2285312100450871072000BC00BB
:100EA00021004608723D2000BD003D0821004A0295
:100EB000031D5E2F20003C08210049020318080092
:100EC000C501C60120006F08BA00BB01BA35BB0DD1
:100ED000BA35BB0DBA35BB0D3A082100C307200057
:100EE0003B082100C43D20006F08BA00BB01BA35A1
:100EF000BB0DBA35BB0DBA35BB0D2100470820002C
:100F00003A07BC002100480820003B3DBD002100FD
:100F1000440820003D02031D912F210043082000BA
:100F20003C020318080021004808C4004708C30019
:100F300008002000EE0001309331F2238731963013
:100F4000F1000030F2000030F300F4009131522142
:100F5000873102309131F62187310030F100F20003
:100F60000030F300F40091315C218731CF30200054
:100F7000CA000030CB0092318D2287319630F100CB
:100F80000030F2000030F300F4009131522187313B
:100F9000E030F1000730F2009131492187315E30B5
:100FA0002000E6009930E7006E082100DB00DC013C
:100FB0005B082000E80021005C082000E9006D08C3
:100FC0002100DD00DE015D082000EA0021005E084E
:100FD0002000EB00CF309231D6228731CF30CA00CB
:100FE0000030CB0092318D22873100309331F223D3
:100FF0000800FE0012001E00FE0BFA2F0034013420
:1010000008000030A3000030A2000030A100003032
:10101000A000711C13287508A0077608A13D770869
:10102000A23D7808A33D0130F535F60DF70DF80D1A
:10103000890B14280130F436F30CF20CF10C890BF7
:101040001B287408730472047104031D0928230803
:10105000F4002208F3002108F2002008F100080043
:10106000DD004E0886008701403FD000413FD1009F
:1010700050088400510885001200253A031DDB2822
:101080004E08860087010130810741310318810A2B
:101090002100BD01BE01C101C201FF30BF00FF3010
:1010A000C00020004E0886008701403FD000413F2D
:1010B000D10050088400510885001200643A0319D9
:1010C00070284E0886008701403FD000413FD10084
:1010D00050088400510885001200693A031DA928B0
:1010E0004E08860087010130810741310318810ACB
:1010F0004F088600870101088400850102308107BE
:10110000003FD000013FD1005008D5005108D60063
:10111000890D893B8909D700D800D900DA00DB00A6
:10112000DC005508B0005608B1005708B200580856
:10113000B3005908B4005A08B5005B08B6005C0853
:10114000B7005D088A31CD223108CF003008CE00CB
:1011500008004E0886008701403FD000413FD10083
:1011600050088400510885001200253A031DD0283C
:101170004E08860087010130810741310318810A3A
:101180002530F1000030F2005D08D0005008F30077
:101190009331652301302000CE000030CF000800DD
:1011A0004E08860087010130810741310318810A0A
:1011B000CE01CF0108004E0886008701403FD000D5
:1011C000413FD10050088400510885000008D2003A
:1011D000D3015208F1005308F2005D08D40054080E
:1011E000F30093316523883120004E088600870183
:1011F0000130810741310318810ACA28F3012830E0
:10120000860000308700473FF100F11F28292000A9
:10121000A809A909AA09AB09AC09AD09AE09AF092A
:10122000A80A031D2629A90A031D2629AA0A031DA7
:101230002629AB0A031D2629AC0A031D2629AD0A5F
:10124000031D2629AE0A031D2629AF0AF301F30A5E
:101250002030860000308700473FF100F11F4F2902
:101260002000A009A109A209A309A409A509A609AA
:10127000A709A00A031D4F29A10A031D4F29A20A8D
:10128000031D4F29A30A031D4F29A40A031D4F293B
:10129000A50A031D4F29A60A031D4F29A70A2000EE
:1012A00020082104220423042404250426042704FE
:1012B0000319A729F201F20AA71B6B29A035A10D7A
:1012C000A20DA30DA40DA50DA60DA70D0130F100D3
:1012D0007108F2075C2927082F02031D89292608B7
:1012E0002E02031D892925082D02031D89292408A2
:1012F0002C02031D892923082B02031D892922089A
:101300002A02031D892921082902031D8929200891
:101310002802031C9B292008A8022108A93B2208B7
:10132000AA3B2308AB3B2408AC3B2508AD3B260871
:10133000AE3B2708AF3BA736A60CA50CA40CA30C0C
:10134000A20CA10CA00C0130F202031D6B29730842
:101350000319C829A809A909AA09AB09AC09AD094B
:10136000AE09AF09A80A031DC829A90A031DC82987
:10137000AA0A031DC829AB0A031DC829AC0A031D0C
:10138000C829AD0A031DC829AE0A031DC829AF0A22
:1013900020002808A0002908A1002A08A2002B0884
:1013A000A3002C08A4002D08A5002E08A6002F08D5
:1013B000A7000800F3012030860000308700473F77
:1013C000F100F11F042A2000A009A109A209A30924
:1013D000A409A509A609A709A00A031D022AA10AB2
:1013E000031D022AA20A031D022AA30A031D022AC0
:1013F000A40A031D022AA50A031D022AA60A031D28
:10140000022AA70AF301F30A283086000030870079
:10141000473FF100F11F2F2A2000A809A909AA09B6
:10142000AB09AC09AD09AE09AF09A80A031D2B2A07
:10143000A90A031D2B2AAA0A031D2B2AAB0A031D86
:101440002B2AAC0A031D2B2AAD0A031D2B2AAE0A38
:10145000031D2B2AAF0A0130F1007108F306743026
:101460008600003087000830F10000301E00F10BCC
:10147000362A200020082104220423042404250401
:101480002604270403199A2AF201F20AA71B552AF7
:10149000A035A10DA20DA30DA40DA50DA60DA70DA0
:1014A0000130F1007108F207462AF435F50DF60D0A
:1014B000F70DF80DF90DFA0DFB0D27082F02031D8E
:1014C0007B2A26082E02031D7B2A25082D02031DD8
:1014D0007B2A24082C02031D7B2A23082B02031DD0
:1014E0007B2A22082A02031D7B2A21082902031DC8
:1014F0007B2A20082802031C8E2A2008A802210823
:10150000A93B2208AA3B2308AB3B2408AC3B250897
:10151000AD3B2608AE3B2708AF3B7414A736A60C9C
:10152000A50CA40CA30CA20CA10CA00C0130F2027F
:10153000031D552A73080319BB2AF409F509F60996
:10154000F709F809F909FA09FB09F40A031DBB2A8E
:10155000F50A031DBB2AF60A031DBB2AF70A031D61
:10156000BB2AF80A031DBB2AF90A031DBB2AFA0A83
:10157000031DBB2AFB0A74082000A0007508A10007
:101580007608A2007708A3007808A4007908A500CF
:101590007A08A6007B08A7000800BB003008C4003A
:1015A0003108C5003208C6003308C7003408C80037
:1015B0003508C9003608CA003708CB004430860019
:1015C00000308700473FB800B81FE82A0130E92AF9
:1015D00000302000B900BA013908C2003A08C3003F
:1015E000420843040319122BC409C509C609C709D7
:1015F000C809C909CA09CB09C40A031D122BC50AA7
:10160000031D122BC60A031D122BC70A031D122B22
:10161000C80A031D122BC90A031D122BCA0A031D77
:10162000122BCB0A2100C01B192BFD30C105FF3046
:10163000C2054008803A2000B80080303802031DFF
:10164000242B013021003F0203182C2B01302000F5
:10165000BE000030BF00342B210040082000BF0036
:1016600021003F082000BE0021003E082000C100EC
:1016700021003D082000C00042084304031D432B05
:101680002100411D482BFF302000C007FF30C13D25
:101690001F302000CC000030CD002200BF01DC2B29
:1016A00020004408450446044704480449044A0409
:1016B0004B04031D752B3F08803AB8008030380278
:1016C000031D642B01303E020318752B20004108D6
:1016D000803AB80080303802031D702B0130400280
:1016E000031CE82B2100C11CE82BFF302000CC0795
:1016F000FF30CD3D0A30A000A101A201A301A40149
:10170000A501A601A7014408A8004508A9004608AC
:10171000AA004708AB004808AC004908AD004A08D9
:10172000AE004B08AF008831FE208A312108F50059
:101730002008F40092310B228A317408303E2000D8
:10174000B8004C08203E8600013087003808810030
:10175000FF30BE07FF30BF3DFF30C007FF30C13D47
:101760000A30A000A101A201A301A401A501A601C4
:10177000A7014408A8004508A9004608AA00470890
:10178000AB004808AC004908AD004A08AE004B0861
:10179000AF008931DA218A312008C4002108C50050
:1017A0002208C6002308C7002408C8002508C9006D
:1017B0002608CA002708CB0020004D08803AB80050
:1017C00080303802031DE62B01304C020318502BE9
:1017D000200042084304031DF02B2100411D082C6A
:1017E000FF302000CC07FF30CD3D42084304031DED
:1017F000FB2B2B30FC2B2D30BC000030BD003C08F7
:10180000B8004C08203E860001308700380881006F
:1018100020004C08203EB8003808A7004108A90065
:101820004008A8003B08943188242808B100270804
:10183000B00008000C1091317B218C3100309431C4
:101840003B248C318B170B170E30F1001130F20056
:10185000913123218C31FF30F1001030F2009131B1
:1018600018218C31FC30F1001030F20091311D2133
:101870008C310930F1001130F200913113218C319B
:10188000963125268C3100302000BA00BB00923101
:1018900070228C310030CB00CC000030CD00CE0067
:1018A0004430CF000130D000E030D1000730D2000A
:1018B0000030D300D400220042082100DF005F087E
:1018C0002000D5009431D6248C310030CB00CC00E0
:1018D00021003308DF00E001DF35E00DDF35E00DEA
:1018E000DF35E00D4030E1000130E2005F086102C9
:1018F0002000CD0021006008623B2000CE00B53002
:10190000CF000030D000E030D1000730D2000030EE
:10191000D300D40021003308E30063082000D50081
:101920009431D6248C3121002E08DF00E0015F08BD
:101930002000CB00210060082000CC0021003008EE
:101940002000CE0021002F082000CD00A930CF00BC
:101950000030D000FF30D100FF30D2000030D30083
:10196000D40021002808E10061082000D50094314E
:10197000D6248C31ED010030873199278C317C03DE
:10198000031DC52C2200C001CC2C02307C06031D97
:10199000CC2C2200C001C00A21004D03031DD22C13
:1019A000B101D82C02304D06031DD82CB101B10A6B
:1019B0007C08031DEB2C4D08031DEB2C033021008C
:1019C000E000A430DF004F30890BE42CDF0BE42C67
:1019D000E00BE42C0D2D7C080319F92C403020007D
:1019E000DF000130E0009631AA268C31FC01210095
:1019F000032DB1302000DF000030E0009631AA2630
:101A00008C312100CD014B08DF005F082000ED0084
:101A100021004C08873199278C3121002E08DF00E6
:101A2000E0015F082000CB00210060082000CC000E
:101A3000210030082000CE0021002F082000CD001A
:101A4000A930CF000030D0000030D100D2000030EB
:101A5000D300D40021002808E10061082000D5004F
:101A60009431D6248C31E63021002E02031C3B2D0C
:101A7000A501A50A3F2D0B302E02031CA501013044
:101A80003002203003192F02031C662D3A082E0263
:101A9000031C602D3A083E3EDF0000300318013081
:101AA000E0006008803AE10080306102031D5A2D99
:101AB0002E085F02031C602D2100A601A60AA22D9C
:101AC00001302100DF005F08CC078F2D003030028D
:101AD000133003192F020318A22D220049082100F8
:101AE0002E02031C8A2D220049083E3E2100DF0001
:101AF000003003180130E0006008803AE1008030D7
:101B00006102031D852D2E085F02031C8A2D210012
:101B1000A601A22D01302100DF005F08CB074B0892
:101B2000DF005F082000ED0021004C088731992775
:101B30008C3173302100DF005F08AE009830AF00B9
:101B40000030B00025080319A82D2708AE02AC2DDF
:101B50002708DF005F08AE0726080319B72D2708FE
:101B6000DF00E0015F08AF026008B03BBE2D270830
:101B7000DF00E0015F08AF076008B03D2E08DF001E
:101B8000E0015F082000CB00210060082000CC00AD
:101B9000210030082000CE0021002F082000CD00B9
:101BA000A930CF000030D000E030D1000730D200A3
:101BB0000030D300D40021002808E1006108200093
:101BC000D5009431D6248C31BF2CCA014A08BC0000
:101BD000BD013C083A0786003D083B3D87000108EF
:101BE000BE003E08C800C901481C662E6F03031DD5
:101BF0001B2E4A08210045072000A60021004608A8
:101C00000318460A2000A7004908210043072000C6
:101C1000A800210044080318440A2000A90021005C
:101C200023082000AB00210022082000AA009331E5
:101C30002B238D31E42E4A08BC00BD013C08F10085
:101C40003D08F2006F08BE00BF013E08F3003F08E8
:101C5000F40092313A228D312100450871072000AD
:101C6000A60021004608723D2000A7004908C000D8
:101C7000C1014008F1004108F2006F08C200C30131
:101C80004208F3004308F40092313A228D312100DA
:101C9000430871072000A80021004408723D20007D
:101CA000A9006F08C400C5014408AA004508AB009C
:101CB0006F08C600C7014608AC004708AD00210008
:101CC00023082000AF0021002208DF2E2100230876
:101CD0002106031D6D2E220820060319E42E200084
:101CE0006F03031D952E4A08210045072000A6001A
:101CF000210046080318460A2000A70049082100D1
:101D000043072000A800210044080318440A2000CB
:101D1000A900210021082000AB002100200820009C
:101D2000AA0093312B238D31E42E4A08BC00BD015B
:101D30003C08F1003D08F2006F08BE00BF013E08FC
:101D4000F3003F08F40092313A228D31210045081A
:101D500071072000A60021004608723D2000A70060
:101D60004908C000C1014008F1004108F2006F08B5
:101D7000C200C3014208F3004308F40092313A2242
:101D80008D312100430871072000A800210044087C
:101D9000723D2000A9006F08C400C5014408AA00D4
:101DA0004508AB006F08C600C7014608AC004708ED
:101DB000AD00210021082000AF00210020082000F4
:101DC000AE0097313D278D3101302000BC003C082A
:101DD000C9070310C80C08304902031CF42D013058
:101DE000BC003C08CA0705304A02031CE62D21004E
:101DF00023082106031DFE2E220820060319652F45
:101E000020006F03031D262F21004508053E2000FA
:101E1000A60000302100463D2000A7002100440814
:101E20002000A900210043082000A8000830AA00D3
:101E30000030AB00210021082000AD002100200867
:101E40002000AC009531B2258D31652F6F08BC00A4
:101E5000BD013C08F1003D08F2000530F300003000
:101E6000F40092313A228D3121004508710720009B
:101E7000A60021004608723D2000A700210044086A
:101E80002000A900210043082000A8006F08BE0020
:101E9000BF013E08AA003F08AB006F08C000C101A7
:101EA000C035C10DC035C10DC035C10D4008AC00F5
:101EB0004108AD00210021082000AF0021002008CA
:101EC0002000AE0097313D278D3120006F08BC0007
:101ED000BD013C08F1003D08F2000630F30000307F
:101EE000F40092313A228D3171082100C507720841
:101EF000C63D20006F08BC00BD013C08F1003D0854
:101F0000F2000630F3000030F40092313A228D31B5
:101F10002100490871072000BE0021004A08723DD7
:101F20002000BF002100460820003F02031D9C2F17
:101F30002100450820003E020318A32F21004A0873
:101F4000C6004908C50020006F08BC00BD013C0860
:101F5000F1003D08F2000530F3000030F40092314A
:101F60003A228D312100450871072000BE00210072
:101F70004608723D2000BF003F0821004A02031DB1
:101F8000C52F20003E082100490203180800C501A2
:101F9000C60120006F08BC00BD01BC35BD0DBC35BD
:101FA000BD0DBC35BD0D3C082100C30720003D0818
:101FB0002100C43D20006F08BC00BD01BC35BD0D33
:101FC000BC35BD0DBC35BD0D2100470820003C07C8
:101FD000BE002100480820003D3DBF00210044080C
:101FE00020003F02031DF82F2100430820003E027D
:101FF0000318080021004808C4004708C30008006F
:1021F40008000800CD01CD0A0800FC01FC0A080013
:1022040020001810080020000C14181408000230D4
:10221400F0007008CD0008000230F0007008FC00E7
:1022240008007208E9007108E80008007208E70075
:102234007108E600080072082100EB007108EA004A
:10224400080072082100E5007108E4000800640039
:1022540080010131890B2A2900342F00960197014E
:10226400980199019A019B010800603031008D00AA
:102274008F0191010630930092010800F2002000C2
:102284000C1072089131702120000C14080072089F
:10229400A1007108A0002108A3002008A2000800E2
:1022A40072082100C6007108C5007408C4007308D0
:1022B400C300080072082100A3007108A20074087A
:1022C400A1007308A000080000341E340D3400344B
:1022D400013401340134013401340034F100710853
:1022E40023008C002E000F1C74290F1023000C08EF
:1022F400080091312F2191319131E12191319531B2
:102304004225913191313721080021006A086B047C
:10231400031991296B088A006A080A0091313E006A
:10232400BF10080021006808690403199E29690880
:102334008A0068080A0091313E003F11080021001C
:10234400660867040319AB2967088A0066080A004F
:1023540091313E004A120800210064086504031903
:10236400B82965088A0064080A0091313E00D51234
:102374000800F400F301741CC3297108F200720808
:10238400F3070310F10D0310F40C7408031DBD29A9
:10239400730808003E00BF1CD22991318721913176
:1023A4003F1DD7299131942191314A1EDC29913165
:1023B400A1219131D51E08009131AE2108001330BE
:1023C4003D00C5001430C60014303E00A300153093
:1023D400A600C03023008F0090014F308D002000F4
:1023E4009311230090120800F5007508031DFE29BF
:1023F4000130F3000030042A7508F100F20171087D
:10240400F3007208F4007308F10071082000EF0073
:1024140008007508803AF60080307602031D142AFD
:1024240001307402031808007409F6007509F700F6
:10243400F60A0319F70A7608F4007708F50008008D
:10244400F5007508F3007308F40075088600013080
:10245400870001080319332A0130F3007308F507D4
:10246400272A74087502F100F201F11BF203080037
:10247400F501F601711C422A7308F5077408F63D4C
:102484000130F335F40D890B432A0130F236F10C97
:10249400890B482A71087204031D3C2A7608F2004D
:1024A4007508F1000800FF34FF34FF34FF340134B1
:1024B40000340034063402343C347E347E347E34BA
:1024C4003C3473349834003400341E340D340134F5
:1024D4008034803480348034803400340030A6006A
:1024E400A7000030A800A90021004A082000AB0082
:1024F400210049082000AA00210048082000AD005E
:10250400210047082000AC003B08AF003A08AE00A9
:1025140097313D270800FF30CC004C08FB00200019
:102524004B08CD004A08CC007B08FB0A4C0784000A
:102534004D0803184D0A85001200031908004B08C2
:10254400CD004A08CC007B084C0784004D080318D2
:102554004D0A85000008853140259231912AA60054
:10256400A401A50124082607A00020088600013044
:1025740087000108A1002108A3002308031908000B
:102584002308A000A1012008F1002108F200790825
:10259400A2002208F3009331652392310130200018
:1025A400A4070030A53DB42A2100D50068302000DE
:1025B400EC006C082100D40055082000EC006C08E5
:1025C4002100D600D701D801D901DA01200067081B
:1025D400DF006608DE00D430EC006C08E000D63082
:1025E4009231FE222100570855072000EC006C08A8
:1025F4008600870181010800E3005F08E5005E08AA
:10260400E4002100BB01BC012000640884006508CB
:10261400850012000319222B6430E1006108CE000A
:102624006008E2006208CF006308883130209231EC
:102634004E082100BB0720004F082100BC3D062B9B
:1026440021003C082000DF0021003B082000DE00C0
:10265400080021004A0820002702031D352B210011
:102664004908200026020318080021004808200019
:102674002902031D412B21004708200028020318CA
:1026840008009131022193312708F4002608F30051
:102694002908F6002808F5000130F7000030F8009A
:1026A4000130F9000030FA009331AA2393312B084A
:1026B40091317021933120002A0891317021933196
:1026C4009131052108007308031D7308031D6E2B47
:1026D40071088031032008007308033E86008701D7
:1026E400160001040319912B7308033E8600870129
:1026F400403FF400413FF500730A86008701403FE4
:10270400F600413FF7007708803AF8007508803AF0
:102714007802031D8F2B74087602031808007108D1
:10272400F400730886008701730A84008501000899
:102734000107F50075088600870174088100730A93
:10274400860087010130810741310318810A08009E
:1027540077087307A0007808743DA1002008FF3EA5
:10276400A200FF30213DA30079087507A0007A0874
:10277400763DA1002008FF3EA400FF30213DA500C6
:102784002A30913140219331740891317021933171
:102794007308913170219331200023089131702105
:1027A4009331200022089131702193312B309131E3
:1027B400402193317608913170219331750891311C
:1027C400702193312000250891317021933120002C
:1027D40024089131702193312C309131402108002B
:1027E400F50075080339F30073082100CE00172C97
:1027F4004830FF2B28300B2C8830F3007308F50089
:10280400F030C9000030CA004030C7000130152C38
:10281400E830F3007308F5004030C9000130CA0005
:10282400F030C7000030C8002D2C4E08F300F4012E
:102834007408003A03191F2C2D2C7308003A03194D
:10284400FA2B013A0319FC2B033A0319FE2B013A24
:1028540003190A2C2D2C91310221933136309131F8
:1028640040219331750891317021933191310521C3
:102874000800F4002300901A08007408F100F20123
:10288400F135F20DF135F20D6530710784009930A0
:10289400723D850000088F007408F100F201F135E3
:1028A400F20DF135F20D6430710784009930723DF8
:1028B40085000008900091017408F100F201F135DF
:1028C400F20DF135F20D6630710784009930723DD6
:1028D400850000088D007408F100F201F135F20D55
:1028E400F135F20D6730710784009930723D85002F
:1028F4000008F300F30DF30DF30D20001308730625
:10290400F73973069300230090160800AE002100E7
:10291400411C952C20002E08FA007A08F90027089B
:102924009231B12294312000A91B9D2C2908AD00BD
:102934002808AC009F2CAC01AD01AA01AB012B0807
:10294400803AFA002D08803A7A02031DAB2C2C0839
:102954002A020318BF2C2030F1000030F2002000BE
:102964002E08FA007A08F30093316523943101307C
:102974002000AA070030AB3DA12C21004118CB2C2C
:1029840020002E08FA007A08F90027089231B122B3
:10299400943120002708923122222C087107A700C5
:1029A4002D08723DA8000800210046082000D70029
:1029B400210045082000D600210044082000D90049
:1029C400210043082000D800210023082000DB0058
:1029D400210022082000DA00210021082000DD0067
:1029E400210020082000DC006F08FB007B08DE00CB
:1029F4004C08F2004B08F1004E08F4004D08F300B7
:102A0400913152219431200055089131F6219431AD
:102A14005208F2005108F1005408F4005308F3007E
:102A240091315C21943120005008BB004F08BA005A
:102A34008D31E525200057082100C60020005608E6
:102A44002100C500200059082100C40020005808B6
:102A54002100C30020005B082100A30020005A08C5
:102A64002100A20020005D082100A10020005C08D4
:102A74002100A00020005E08FB007B08EF00080096
:102A840020009A01990101309600970103309800C3
:102A940007309500FE309100FF309200B43093006F
:102AA400FF309400FF303E00D9008430CE00EF3078
:102AB400C3000730E400F830B800DA01E501C401CE
:102AC400B901CF01E601BA01C501D001DB01FF3034
:102AD400BB00FF30C600FF30D100FF30DC00073000
:102AE400E700FF30BC00FF30C700FF30D200FF30EA
:102AF400DD000730E800BF103F11BE143E15BD10C5
:102B04003D114A1249164812D512D416D312FA307E
:102B1400F1001030F20091311D219531FB30F100AC
:102B24001030F2009131132195310030F10008305A
:102B3400F2009131182195310230F1000030F20099
:102B4400913123212E00161613303D00C500143098
:102B54003E00A3001530A60014303D00C600080056
:102B640021004A0820002702031DBC2D210049082A
:102B7400200026020318080021004808200029022A
:102B8400031DC82D2100470820002802031808004F
:102B94002A082B04031908002D08AE002E08B200E1
:102BA4002C08AE002E08B3002A082807AE002B0814
:102BB400293DAF002E08FF3EB000FF302F3DB1008D
:102BC4002100480820003102031DEC2D2100470894
:102BD40020003002031CF82D2808210047022000A1
:102BE400AA0029082100483B2000AB0091310221B2
:102BF40095312708F4002608F3002908F600280870
:102C0400F5000130F7000030F8002B08FA002A081C
:102C1400F9009331AA23953101302000AA02003033
:102C2400AB3B2A0A03192B0A0319222E32089131CD
:102C340070219531200033089131702195310E2E89
:102C4400913105210800200016140530F4000F30DE
:102C5400F300F130890B2C2EF30B2C2EF40B2C2EBD
:102C64000000200016100530F4000F30F300F1309E
:102C7400890B3A2EF30B3A2EF40B3A2E0000200067
:102C840016140930F4001E30F300E430890B482E8A
:102C9400F30B482EF40B482E003220001814913107
:102CA400022196310030F8009830F9007808840049
:102CB400790885000008F3007308F7000130F8076D
:102CC4000030F93D770803199D2E77089131402192
:102CD400963178088400790885000008F3007308A9
:102CE400F6000130F8070030F93D76087F39F3002B
:102CF4007308F5000130F502750A03198E2E780861
:102D040084007908850000089131702196310130E2
:102D1400F8070030F93D7C2EF61F582E0730F400DA
:102D24001730F3006A30890B952EF30B952EF40BB4
:102D3400952E0032582E91310521F0302100C90022
:102D44000030CA004030C7000130C800CE0108007E
:102D5400E6015F0886006008870043310108031913
:102D6400C42EF830E1006108F1005F0886006008B5
:102D74008700423101089131BB219631403EE20087
:102D84006208E6005F088600600887004931010890
:102D9400E100E2016108CB006208CC006608E300B0
:102DA400E4016308CD006408CE005F08043ECF0050
:102DB4000030603DD0000030D100D2000030D3009C
:102DC400D4005F0886006008870042310108E500EE
:102DD4006508D5009431D62496315F0886006008D2
:102DE400870001080319052F5F0886006008870023
:102DF40041310108E1005F0886006008870049311D
:102E040061088107112F5F0886006008870041313F
:102E14005F088400600885000931010880025F08AA
:102E240086006008870049310108E100E201610879
:102E3400CB006208CC006608E300E4016308CD001F
:102E44006408CE005F08043ECF000030603DD0002F
:102E5400E030D1000730D2000030D300D4005F0846
:102E640086006008870042310108E5006508D50046
:102E74009431D62408002A082B04031908002C08CE
:102E84002D04031908002F08B0003008B8002E08DC
:102E9400B0003008B90021004A0820002702031DB1
:102EA400572F21004908200026020318080021009A
:102EB400480820002902031D632F21004708200031
:102EC4002802031808002A082607B0002B08273D0B
:102ED400B1003008FF3EB200FF30313DB3002100A5
:102EE4004A0820003302031D7B2F210049082000DB
:102EF4003202031C872F2608210049022000AA0061
:102F0400270821004A3B2000AB002C082807B0000A
:102F14002D08293DB1003008FF3EB200FF30313D9D
:102F2400B3002100480820003302031D9D2F210017
:102F3400470820003202031CA92F28082100470259
:102F44002000AC0029082100483B2000AD0091314D
:102F5400022197312708F4002608F3002908F60017
:102F64002808F5002B08F8002A08F7002D08FA00B5
:102F74002C08F9009331AA2397312A08F1002B0871
:102F8400F200F301F4012C08F5002D08F600F70116
:102F9400F8018831012097317408B7007308B6002E
:102FA4007208B5007108B40001302000B000003090
:102FB400B1000030B2000030B3003008B402310870
:102FC400B53B3208B63B3308B73B340A031DF22F36
:102FD400350A031DF22F360A0319370A0319FD2F88
:102FE400200038089131702197312000390891313F
:102FF40070219731D62F913105210800EF34033425
:10300400033480340234CF3403340034C1343034D4
:10301400ED3404346434033412348134E834033436
:10302400853400347834CB34053439342C340034CA
:1030340034340234F73401342034EA3402340034B2
:103044000034C03401342334C13401341034C53461
:1030540002343E342834C7340134863436340134DF
:1030640048343734013400343A3401345534B134FB
:10307400023400341834B634033408348234273428
:10308400F23401340034263401340134E0340F3492
:103094000F3431342B340C340E3408344E34F134C0
:1030A40037340734103403340E3409340034E13433
:1030B4000F3400340E3414340334113407343134EF
:1030C400C134483408340F340C34313436340F34BA
:1030D40011348034293480340034773469347434BE
:1030E400683420346334723469346E346B346C3431
:1030F40079342034623469346E3464346C34653425
:1031040077347534723464346C34653473342C34E9
:103114000D340A3400346D347934203466346F3419
:103124006F346E34743469346E34673420347434D8
:10313400753472346C3469346E3467346434723484
:103144006F346D34653473342E340D340A340034E2
:1031540041346E346434203468346F346F347034E2
:10316400743469346F34753473346C347934203482
:103174006434723461346E3467346C3465342034AE
:103184006D3465340D340A3400347734693474345E
:10319400683420346D347934203462346C347534BA
:1031A400723467346C3465346334723475346E3419
:1031B4006334683465346F346E342C340D340A341B
:1031C40000344F3472342034493420347734693431
:1031D4006C346C342034723465346E34643420348A
:1031E40074346834653465340D340A340034693415
:1031F4006E342034743468346534203467346F3466
:1032040062346234653472347734613472347434C1
:1032140073340D340A340034733465346534203423
:103224006934663420344934203464346F346E3461
:103234002734743421340D340A34003449342034AE
:1032440069346D3470346C346F34723465342034C2
:1032540074346834653465342C340D340A340034E1
:10326400483465346C346C346F34203457346F34E0
:1032740072346C34643421340D340A3400344434EC
:1032840045344134443442344534453446340D34B1
:103294000A34003431343234333434342E34353453
:1032A40036340D340A340034473472346F346F3496
:1032B40070340D340A340034253469343A342534F6
:0C32C400693400340034C0344F3400344E
:020000040001F9
:0A000E00EC3FFF3F9F3FFF3FFF3F25
:00000001FF
