:020000040000FA
:1000000080311428080001347E1480312E00161E21
:100010000A280B2812280C1E0E280F2812289031AF
:10002000F82080317E1009008031162880310320AD
:100030008031EF009F30840090308500A030860032
:10004000003087001B308731FA278031013084006F
:100050009030850040308600013087000A308731BB
:10006000FA278031FC01BB30840000308500173056
:10007000883100208031203084000130850020301C
:100080008831002080317E1020008B31BA2B003463
:1000900000340034003400343E345B344F345B347D
:1000A0003E343E346B344F346B343E341C343E3477
:1000B0007C343E341C3418343C347E343C341834A4
:1000C0001C3457347D3457341C341C345E347F3434
:1000D0005E341C34003418343C3418340034FF349B
:1000E000E734C334E734FF3400341834243418348C
:1000F0000034FF34E734DB34E734FF343034483441
:100100003A3406340E3426342934793429342634EA
:1001100040347F3405340534073440347F340534AB
:1001200025343F345A343C34E7343C345A347F3439
:100130003E341C341C34083408341C341C343E3423
:100140007F34143422347F34223414345F345F34E7
:1001500000345F345F34063409347F3401347F3433
:1001600000346634893495346A34603460346034E1
:10017000603460349434A234FF34A23494340834AC
:1001800004347E3404340834103420347E34203473
:100190001034083408342A341C34083408341C342D
:1001A0002A34083408341E34103410341034103417
:1001B0000C341E340C341E340C34303438343E3499
:1001C0003834303406340E343E340E3406340034C1
:1001D0000034003400340034003400345F34003420
:1001E00000340034073400340734003414347F34CE
:1001F00014347F34143424342A347F342A341234AF
:100200002334133408346434623436344934563475
:1002100020345034003408340734033400340034BC
:100220001C342234413400340034413422341C3430
:1002300000342A341C347F341C342A340834083403
:100240003E340834083400348034703430340034A0
:100250000834083408340834083400340034603476
:1002600060340034203410340834043402343E3412
:100270005134493445343E34003442347F344034C0
:1002800000347234493449344934463421344134D9
:1002900049344D3433341834143412347F34103428
:1002A000273445344534453439343C344A344934B0
:1002B000493431344134213411340934073436346B
:1002C000493449344934363446344934493429347C
:1002D0001E3400340034143400340034003440340C
:1002E00034340034003400340834143422344134BB
:1002F0001434143414341434143400344134223497
:1003000014340834023401345934093406343E3488
:1003100041345D3459344E347C3412341134123447
:100320007C347F3449344934493436343E344134A2
:100330004134413422347F344134413441343E34F9
:100340007F3449344934493441347F3409340934E1
:10035000093401343E3441344134513473347F34F0
:100360000834083408347F34003441347F34413455
:1003700000342034403441343F3401347F34083475
:100380001434223441347F344034403440344034D7
:100390007F3402341C3402347F347F340434083414
:1003A00010347F343E344134413441343E347F3460
:1003B00009340934093406343E344134513421348B
:1003C0005E347F34093419342934463426344934B0
:1003D000493449343234033401347F340134033432
:1003E0003F344034403440343F341F3420344034B0
:1003F00020341F343F344034383440343F34633485
:100400001434083414346334033404347834043436
:1004100003346134593449344D34433400347F3427
:10042000413441344134023404340834103420342B
:1004300000344134413441347F34043402340134D3
:1004400002340434403440344034403440340034C6
:1004500003340734083400342034543454347834AA
:1004600040347F34283444344434383438344434C9
:1004700044344434283438344434443428347F34C5
:1004800038345434543454341834003408347E34FA
:10049000093402341834A434A4349C3478347F34BE
:1004A0000834043404347834003444347D34403423
:1004B00000342034403440343D3400347F34103430
:1004C000283444340034003441347F344034003420
:1004D0007C3404347834043478347C340834043480
:1004E0000434783438344434443444343834FC34B8
:1004F000183424342434183418342434243418346C
:10050000FC347C340834043404340834483454341F
:10051000543454342434043404343F3444342434C0
:100520003C344034403420347C341C342034403457
:1005300020341C343C344034303440343C34443473
:1005400028341034283444344C349034903490346B
:100550007C344434643454344C34443400340834EB
:1005600036344134003400340034773400340034FD
:100570000034413436340834003402340134023457
:10058000043402343C342634233426343C341E34C0
:10059000A134A134613412343A344034403420342C
:1005A0007A3438345434543455345934213455342D
:1005B0005534793441342234543454347834423408
:1005C0002134553454347834403420345434553440
:1005D000793440340C341E34523472341234393489
:1005E00055345534553459343934543454345434DE
:1005F0005934393455345434543458340034003474
:1006000045347C3441340034023445347D34423442
:100610000034013445347C3440347D341234113498
:1006200012347D34F034283425342834F0347C34CA
:1006300054345534453400342034543454347C34E8
:1006400054347C340A3409347F34493432344934E4
:100650004934493432343A344434443444343A34F6
:1006600032344A344834483430343A3441344134F2
:1006700021347A343A3442344034203478340034EB
:100680009D34A034A0347D343D344234423442346D
:100690003D343D344034403440343D343C342434E3
:1006A000FF342434243448347E34493443346634AB
:1006B0002B342F34FC342F342B34FF3409342934B9
:1006C000F6342034C03488347E3409340334203482
:1006D00054345434793441340034003444347D3457
:1006E00041343034483448344A3432343834403475
:1006F000403422347A3400347A340A340A3472347E
:100700007D340D34193431347D3426342934293480
:100710002F342834263429342934293426343034EB
:1007200048344D34403420343834083408340834E4
:100730000834083408340834083438342F3410347A
:10074000C834AC34BA342F34103428343434FA3446
:10075000003400347B3400340034083414342A3438
:1007600014342234223414342A34143408345534E2
:100770000034553400345534AA345534AA34553431
:10078000AA34FF345534FF345534FF340034003478
:100790000034FF340034103410341034FF3400348B
:1007A000143414341434FF34003410341034FF344F
:1007B0000034FF3410341034F0341034F034143476
:1007C00014341434FC34003414341434F734003446
:1007D000FF3400340034FF340034FF341434143454
:1007E000F4340434FC3414341434173410341F3407
:1007F000103410341F3410341F34143414341434AF
:100800001F340034103410341034F0340034003409
:10081000003400341F3410341034103410341F34BA
:100820001034103410341034F034103400340034E8
:100830000034FF34103410341034103410341034B9
:10084000103410341034FF341034003400340034C9
:10085000FF34143400340034FF340034FF340034E7
:1008600000341F341034173400340034FC340434A2
:10087000F434143414341734103417341434143456
:10088000F4340434F43400340034FF340034F734E6
:100890001434143414341434143414341434F73435
:1008A0000034F7341434143414341734143410343A
:1008B00010341F3410341F34143414341434F4340A
:1008C000143410341034F0341034F0340034003464
:1008D0001F3410341F340034003400341F341434F7
:1008E000003400340034FC34143400340034F03468
:1008F0001034F03410341034FF341034FF34143416
:1009000014341434FF3414341034103410341F34BD
:100910000034003400340034F0341034FF34FF3439
:10092000FF34FF34FF34F034F034F034F034F0347A
:10093000FF34FF34FF34003400340034003400341A
:10094000FF34FF340F340F340F340F340F34383486
:100950004434443438344434FC344A344A344A3419
:1009600034347E34023402340634063402347E34A5
:1009700002347E34023463345534493441346334B0
:100980003834443444343C34043440347E342034E9
:100990001E342034063402347E3402340234993456
:1009A000A534E734A53499341C342A3449342A3424
:1009B0001C344C347234013472344C3430344A3484
:1009C0004D344D3430343034483478344834303455
:1009D000BC3462345A3446343D343E3449344934AC
:1009E000493400347E340134013401347E342A34F5
:1009F0002A342A342A342A34443444345F34443484
:100A00004434403451344A3444344034403444341F
:100A10004A345134403400340034FF340134033458
:100A2000E0348034FF3400340034083408346B344C
:100A30006B340834363412343634243436340634C5
:100A40000F3409340F3406340034003418341834A9
:100A50000034003400341034103400343034403466
:100A6000FF340134013400341F34013401341E34A6
:100A7000003419341D341734123400343C343C34FF
:100A80003C343C3400340034003400340034200062
:100A9000C70020304706031D4E2D4F2D5C2D210031
:100AA00045084604031D552D562D5C2D24080319B9
:100AB0005A2D5B2D5C2DD02F0D3020004706031DD5
:100AC000622D632D672D2100C501C601D02F0A308C
:100AD0004706031D6C2D6D2D7E2D6F08BA00BB01DE
:100AE000BA35BB0DBA35BB0DBA35BB0D3A0821007E
:100AF000C30720003B082100C43DD02FC90147088F
:100B0000BA00BB013A08F1003B08F2000530F300DF
:100B10000030F4009031BA20853147302000BC000D
:100B20008030BD0071083C07BE0072083D3DBF002B
:100B300049083E0784003F0803183F0A8500000863
:100B4000C0004008C600C801461CA72DA82D1F2EB6
:100B50006F03031DAC2DAD2DCF2D49082100450796
:100B60002000A600210046080318460A2000A7001E
:100B70004808210043072000A8002100440803186A
:100B8000440A2000A900210023082000AB00210016
:100B900022082000AA009131D1218531A12E4908D7
:100BA000BA00BB013A08F1003B08F2006F08BC0034
:100BB000BD013C08F3003D08F4009031BA208531B6
:100BC0002100450871072000A60021004608723D5B
:100BD0002000A7004808BE00BF013E08F1003F0802
:100BE000F2006F08C000C1014008F3004108F400A2
:100BF0009031BA2085312100430871072000A800F8
:100C000021004408723D2000A9006F08C200C30102
:100C10004208AA004308AB006F08C400C50144089D
:100C2000AC004508AD00210023082000AF002100E2
:100C300022082000AE0096314D268531A12E2100DC
:100C400023082106031D262E220820060319292E1B
:100C50002A2EA12E20006F03031D2F2E302E522E80
:100C60004908210045072000A60021004608031876
:100C7000460A2000A7004808210043072000A800DA
:100C8000210044080318440A2000A900210021087B
:100C90002000AB00210020082000AA009131D121C2
:100CA0008531A12E4908BA00BB013A08F1003B0882
:100CB000F2006F08BC00BD013C08F3003D08F400E1
:100CC0009031BA2085312100450871072000A60027
:100CD00021004608723D2000A7004808BE00BF0161
:100CE0003E08F1003F08F2006F08C000C101400853
:100CF000F3004108F4009031BA2085312100430807
:100D000071072000A80021004408723D2000A900BE
:100D10006F08C200C3014208AA004308AB006F0875
:100D2000C400C5014408AC004508AD0021002108FD
:100D30002000AF00210020082000AE0096314D2693
:100D4000853101302000BA003A08C8070310C60CEC
:100D500008304802031CAD2EAE2EA42D0130BA007F
:100D60003A08C90705304902031CB72EB82E7F2D5B
:100D7000210023082106031DBF2E22082006031987
:100D8000C22EC32E2A2F20006F03031DC82EC92E8A
:100D9000EB2E21004508053E2000A6000030210072
:100DA000463D2000A700210044082000A9002100A2
:100DB00043082000A8000830AA000030AB00210042
:100DC00021082000AD00210020082000AC00943153
:100DD000A52485312A2F6F08BA00BB013A08F1001B
:100DE0003B08F2000530F3000030F4009031BA20E7
:100DF00085312100450871072000A6002100460822
:100E0000723D2000A700210044082000A900210015
:100E100043082000A8006F08BC00BD013C08AA00E0
:100E20003D08AB006F08BE00BF01BE35BF0DBE352B
:100E3000BF0DBE35BF0D3E08AC003F08AD00210020
:100E400021082000AF00210020082000AE009631CC
:100E50004D26853120006F08BA00BB013A08F10029
:100E60003B08F2000630F3000030F4009031BA2065
:100E7000853171082100C5077208C63D20006F0842
:100E8000BA00BB013A08F1003B08F2000630F3005B
:100E90000030F4009031BA208531210049087107F3
:100EA0002000BC0021004A08723D2000BD00210046
:100EB000460820003D02031D612F21004508200047
:100EC0003C020318642F652F6A2F21004A08C600D0
:100ED0004908C5002100240803196F2F702FD02F57
:100EE00020006F08BA00BB013A08F1003B08F2008D
:100EF0000530F3000030F4009031BA208531210034
:100F0000450871072000BC0021004608723D200002
:100F1000BD003D0821004A02031D922F20003C081D
:100F2000210049020318952F962FD02FC501C60125
:100F300020006F08BA00BB01BA35BB0DBA35BB0D36
:100F4000BA35BB0D3A082100C30720003B08210039
:100F5000C43D20006F08BA00BB01BA35BB0DBA35DD
:100F6000BB0DBA35BB0D2100470820003A07BC0075
:100F70002100480820003B3DBD002100440820001E
:100F80003D02031DC72F2100430820003C02031827
:100F9000CA2FCB2FD02F21004808C4004708C30018
:100FA00008002100D50068302000EC006C0821000A
:100FB000D40055082000EC006C082100D600D701B1
:100FC000D801D901DA0120006708DF006608DE00D9
:100FD000D430EC006C08E000D63091316A218731C2
:100FE0002100570855072000EC006C088600870197
:100FF00081010800FE0012001E00FE0BFB2F0034D2
:10100000640080010131890B012800342000AE000A
:101010002100411C0C280D28162820002E08FA005B
:101020007A08F90027089131412188312000A91B55
:101030001A281B2820282908AD002808AC002228DF
:10104000AC01AD01AA01AB0136282030F10000301F
:10105000F20020002E08FA007A08F3009231AB2249
:10106000883101302000AA070030AB3D2B08803AC0
:10107000FA002D08803A7A02031D40282C082A0223
:10108000031C4328442825282100411848284928C2
:10109000522820002E08FA007A08F900270891311A
:1010A0004121883120002708903185208831200097
:1010B0002C087107A7002D08723DA8000800F30155
:1010C0002830860000308700473FF100F11F692873
:1010D0006A288B282000A809A909AA09AB09AC092C
:1010E000AD09AE09AF09A80A031D8928A90A031D85
:1010F0008928AA0A031D8928AB0A031D8928AC0A7E
:10110000031D8928AD0A031D8928AE0A031D8928FD
:10111000AF0AF301F30A2030860000308700473F12
:10112000F100F11F94289528B4282000A009A109F6
:10113000A209A309A409A509A609A709A00A031DD4
:10114000B428A10A031DB428A20A031DB428A30AC7
:10115000031DB428A40A031DB428A50A031DB4283E
:10116000A60A031DB428A70A20002008210422048F
:10117000230424042504260427040319C028C128B5
:101180001429F201F20AD028A035A10DA20DA30D59
:10119000A40DA50DA60DA70D0130F1007108F207F1
:1011A000A71FD328D428C42827082F02031DF228FC
:1011B00026082E02031DF22825082D02031DF22801
:1011C00024082C02031DF22823082B02031DF228F9
:1011D00022082A02031DF22821082902031DF228F1
:1011E00020082802031CF528F62806292008A80252
:1011F0002108A93B2208AA3B2308AB3B2408AC3BAF
:101200002508AD3B2608AE3B2708AF3BA736A60C0A
:10121000A50CA40CA30CA20CA10CA00C0130F20292
:10122000031D13291429D42873080319182919290F
:101230003729A809A909AA09AB09AC09AD09AE0962
:10124000AF09A80A031D3729A90A031D3729AA0ACD
:10125000031D3729AB0A031D3729AC0A031D3729A3
:10126000AD0A031D3729AE0A031D3729AF0A200036
:101270002808A0002908A1002A08A2002B08A30022
:101280002C08A4002D08A5002E08A6002F08A700F2
:101290000800F3012030860000308700473FF1004E
:1012A000F11F5329542975292000A009A109A20979
:1012B000A309A409A509A609A709A00A031D732962
:1012C000A10A031D7329A20A031D7329A30A031D82
:1012D0007329A40A031D7329A50A031D7329A60AED
:1012E000031D7329A70AF301F30A28308600003092
:1012F0008700473FF100F11F7E297F29A2292000A6
:10130000A809A909AA09AB09AC09AD09AE09AF0939
:10131000A80A031D9E29A90A031D9E29AA0A031DC6
:101320009E29AB0A031D9E29AC0A031D9E29AD0A06
:10133000031D9E29AE0A031D9E29AF0A0130F1004C
:101340007108F30674308600003087000830F10021
:1013500000301E00F10BA9292000200821042204DE
:10136000230424042504260427040319B829B929D1
:10137000152AF201F20AC829A035A10DA20DA30D6C
:10138000A40DA50DA60DA70D0130F1007108F207FF
:10139000A71FCB29CC29BC29F435F50DF60DF70D87
:1013A000F80DF90DFA0DFB0D27082F02031DF22988
:1013B00026082E02031DF22925082D02031DF229FD
:1013C00024082C02031DF22923082B02031DF229F5
:1013D00022082A02031DF22921082902031DF229ED
:1013E00020082802031CF529F629072A2008A8024C
:1013F0002108A93B2208AA3B2308AB3B2408AC3BAD
:101400002508AD3B2608AE3B2708AF3B7414A73632
:10141000A60CA50CA40CA30CA20CA10CA00C0130D2
:10142000F202031D142A152ACC2973080319192A5C
:101430001A2A382AF409F509F609F709F809F90909
:10144000FA09FB09F40A031D382AF50A031D382A94
:10145000F60A031D382AF70A031D382AF80A031D65
:10146000382AF90A031D382AFA0A031D382AFB0A0A
:1014700074082000A0007508A1007608A200770873
:10148000A3007808A4007908A5007A08A6007B08C4
:10149000A70008002000BB003008C4003108C500C8
:1014A0003208C6003308C7003408C8003508C90030
:1014B0003608CA003708CB00443086000030870069
:1014C000473FB800B81B652A672A0130682A0030F8
:1014D0002000B900BA013908C2003A08C300420826
:1014E00043040319742A752A932AC409C509C60935
:1014F000C709C809C909CA09CB09C40A031D932A27
:10150000C50A031D932AC60A031D932AC70A031D91
:10151000932AC80A031D932AC90A031D932ACA0ADB
:10152000031D932ACB0A2100C01B972A982A9C2AC4
:10153000FD30C105FF30C2054008803A2000B800E8
:1015400080303802031DA72A013021003F02031812
:10155000AA2AAB2AB12A01302000BE000030BF0009
:10156000B92A210040082000BF0021003F082000C8
:10157000BE0021003E082000C10021003D082000DF
:10158000C00042084304031DC62AC72ACC2A2100F2
:10159000411DCB2ACC2AD12AFF302000C007FF30C2
:1015A000C13D1F302000CC000030CD002200BF0123
:1015B000422BFF302000CC07FF30CD3D0A30A00089
:1015C000A101A201A301A401A501A601A70144084C
:1015D000A8004508A9004608AA004708AB0048082B
:1015E000AC004908AD004A08AE004B08AF00883196
:1015F0005F208A3120002108F5002008F400903196
:101600006B208A317408303E2000B8004C08203E20
:1016100086000130870038088100FF30BE07FF30A8
:10162000BF3DFF30C007FF30C13D0A30A000A1011F
:10163000A201A301A401A501A601A7014408A800D5
:101640004508A9004608AA004708AB004808AC00B6
:101650004908AD004A08AE004B08AF008931492166
:101660008A3120002008C4002108C5002208C600D5
:101670002308C7002408C8002508C9002608CA0096
:101680002708CB0020004D08803AB800803038028F
:10169000031D4C2B01304C02031C4F2B502B7D2B78
:1016A00020004408450446044704480449044A0409
:1016B0004B04031D5C2B5D2BD92A3F08803AB800F0
:1016C00080303802031D662B01303E020318692B5F
:1016D0006A2BD92A20004108803AB80080303802AD
:1016E000031D742B01304002031C772B782B7D2BBC
:1016F0002100C1187C2B7D2BD92A200042084304ED
:10170000031D832B842B892B2100411D882B892BC2
:10171000A62BFF302000CC07FF30CD3D420843040C
:10172000031D932B942B992B2B30BC000030BD0054
:101730009D2B2D30BC000030BD003C08B8004C088B
:10174000203E8600013087003808810020004C08C8
:10175000203EB8003808A7004108A9004008A800AA
:101760003B08883106208A3120002808B10027086C
:10177000B000080020000C109F31C8278B310030CA
:1017800092315C228B318B170B176C30F1001F30BC
:10179000F2009F3189278B315E30F1001F30F2005B
:1017A0009F3183278B316430F1001F30F2009F316D
:1017B00077278B317130F1001F30F2009F317D2788
:1017C0008B31953125258B3100302000BA00BB00CC
:1017D0009031D9208B3100302000CB00CC0000307C
:1017E000CD00CE004430CF000130D000E030D10039
:1017F0000730D2000030D300D4002200420821007C
:10180000DF005F082000D5009331C6238B31003004
:101810002000CB00CC0021003308DF00E001DF35E1
:10182000E00DDF35E00DDF35E00D4030E100013047
:10183000E2005F0861022000CD0021006008623BE9
:101840002000CE00B530CF000030D000E030D10015
:101850000730D2000030D300D40021003308E30069
:1018600063082000D5009331C6238B3121002E0858
:10187000DF00E0015F082000CB00210060082000AD
:10188000CC00210030082000CE0021002F082000CD
:10189000CD00A930CF000030D000FF30D100FF30A4
:1018A000D2000030D300D40021002808E1006108F4
:1018B0002000D5009331C6238B312000ED0100308C
:1018C00093315B238B317C03031D672C682C6B2CBD
:1018D0002200C001742C02307C06031D702C712C78
:1018E000742C2200C001C00A21004D03031D792C75
:1018F0007A2C7C2CB101842C02304D06031D812CE6
:10190000822C842CB101B10A7C08031D882C892CFF
:101910009B2C4D08031D8D2C8E2C9B2C03302100FD
:10192000E000A430DF004F30890B942CDF0B942CA7
:10193000E00B942CC92C7C0803199F2CA02CB52CEF
:1019400040302000DF000130E0009531B2258B31BE
:10195000FC0121004B08DF005F082000ED002100A2
:101960004C0893315B238B31C92CB1302000DF0050
:101970000030E0009531B2258B312100CD014B08BC
:10198000DF005F082000ED0021004C0893315B234D
:101990008B3121002E08DF00E0015F082000CB0022
:1019A000210060082000CC00210030082000CE007B
:1019B00021002F082000CD00A930CF000030D0003A
:1019C0000030D100D2000030D300D400210028081C
:1019D000E10061082000D5009331C6238B31E63049
:1019E00021002E02031CF52CF62CF92CA501A50ACA
:1019F000002D0B302E020318FE2CFF2C002DA5010C
:101A000001303002203003192F02031C082D092D4C
:101A1000402D3A082E02031C0E2D0F2D272D3A08BB
:101A20003E3EDF00003003180130E0006008803ADD
:101A3000E10080306102031D1F2D2E085F02031C90
:101A4000222D232D272D2100A601A60A7A2D013053
:101A50002100DF005F08CC074B08DF005F08200093
:101A6000ED0021004C0893315B238B317330210052
:101A7000DF005F08AE009830AF000030B0007A2D74
:101A800000303002133003192F020318482D492D5E
:101A90007A2D2200490821002E02031C502D512DC1
:101AA0006A2D220049083E3E2100DF000030031865
:101AB0000130E0006008803AE10080306102031DDF
:101AC000632D2E085F02031C662D672D6A2D2100F1
:101AD000A6017A2D01302100DF005F08CB074B08FB
:101AE000DF005F082000ED0021004C0893315B23EC
:101AF0008B31362D250803197E2D7F2D822D270849
:101B0000AE02862D2708DF005F08AE0726080319FE
:101B10008A2D8B2D932D2708DF00E0015F08AF028F
:101B20006008B03B9A2D2708DF00E0015F08AF078F
:101B30006008B03D2E08DF00E0015F082000CB0008
:101B4000210060082000CC00210030082000CE00D9
:101B500021002F082000CD00A930CF000030D00098
:101B6000E030D1000730D2000030D300D400210093
:101B70002808E10061082000D5009331C6238B318D
:101B8000632C803114282000CA014A08BC00BD0122
:101B90003C083A0786003D083B3D87000108BE002F
:101BA0003E08C800C901481CD62DD72D4E2E6F0304
:101BB000031DDB2DDC2DFE2D4A08210045072000EA
:101BC000A600210046080318460A2000A70049087D
:101BD000210043072000A800210044080318440AFC
:101BE0002000A900210023082000AB0021002208CA
:101BF0002000AA009131D1218D31D02E4A08BC009D
:101C0000BD013C08F1003D08F2006F08BE00BF01B5
:101C10003E08F3003F08F4009031BA208D312100D6
:101C2000450871072000A60021004608723D2000EB
:101C3000A7004908C000C1014008F1004108F200B6
:101C40006F08C200C3014208F3004308F40090315A
:101C5000BA208D312100430871072000A80021001F
:101C60004408723D2000A9006F08C400C501440863
:101C7000AA004508AB006F08C600C7014608AC00C3
:101C80004708AD00210023082000AF0021002208F2
:101C90002000AE0096314D268D31D02E2100230834
:101CA0002106031D552E220820060319582E592EF1
:101CB000D02E20006F03031D5E2E5F2E812E4A085A
:101CC000210045072000A600210046080318460A07
:101CD0002000A7004908210043072000A800210098
:101CE00044080318440A2000A9002100210820000C
:101CF000AB00210020082000AA009131D1218D31B4
:101D0000D02E4A08BC00BD013C08F1003D08F2009D
:101D10006F08BE00BF013E08F3003F08F400903199
:101D2000BA208D312100450871072000A60021004E
:101D30004608723D2000A7004908C000C1014008C4
:101D4000F1004108F2006F08C200C3014208F3002D
:101D50004308F4009031BA208D3121004308710707
:101D60002000A80021004408723D2000A9006F084F
:101D7000C400C5014408AA004508AB006F08C600AE
:101D8000C7014608AC004708AD002100210820002B
:101D9000AF00210020082000AE0096314D268D3185
:101DA00001302000BC003C08C9070310C80C0830F3
:101DB0004902031CDC2EDD2ED32D0130BC003C0873
:101DC000CA0705304A02031CE62EE72EC52D210066
:101DD00023082106031DEE2E220820060319F12EEA
:101DE000F22E592F20006F03031DF72EF82E1A2F05
:101DF00021004508053E2000A60000302100463D98
:101E00002000A700210044082000A9002100430869
:101E10002000A8000830AA000030AB0021002108F3
:101E20002000AD00210020082000AC009431A52442
:101E30008D31592F6F08BC00BD013C08F1003D08F1
:101E4000F2000530F3000030F4009031BA208D31FB
:101E50002100450871072000A60021004608723DB8
:101E60002000A700210044082000A9002100430809
:101E70002000A8006F08BE00BF013E08AA003F086E
:101E8000AB006F08C000C101C035C10DC035C10D28
:101E9000C035C10D4008AC004108AD00210021084B
:101EA0002000AF00210020082000AE0096314D2612
:101EB0008D3120006F08BC00BD013C08F1003D08D9
:101EC000F2000630F3000030F4009031BA208D317A
:101ED00071082100C5077208C63D20006F08BC00CC
:101EE000BD013C08F1003D08F2000630F30000306F
:101EF000F4009031BA208D3121004908710720008B
:101F0000BE0021004A08723D2000BF0021004608A3
:101F100020003F02031D902F2100450820003E02B3
:101F20000318932F942F992F21004A08C6004908BF
:101F3000C5002100240803199E2F9F2FFF2F20008A
:101F40006F08BC00BD013C08F1003D08F2000530FF
:101F5000F3000030F4009031BA208D3121004508A3
:101F600071072000BE0021004608723D2000BF001E
:101F70003F0821004A02031DC12F20003E08210016
:101F800049020318C42FC52FFF2FC501C601200029
:101F90006F08BC00BD01BC35BD0DBC35BD0DBC35E9
:101FA000BD0D3C082100C30720003D082100C43DB1
:101FB00020006F08BC00BD01BC35BD0DBC35BD0D9A
:101FC000BC35BD0D2100470820003C07BE002100A4
:101FD000480820003D3DBF002100440820003F028A
:101FE000031DF62F2100430820003E020318F92F9D
:101FF000FA2FFF2F21004808C4004708C30008003B
:10200000080000341E340D3400340134013401342E
:1020100001340134003421006608670403191128D3
:102020001228172867088A0066080A0090313E00C7
:102030004A12080021006408650403192028212899
:10204000262865088A0064080A0090313E00D512EF
:10205000080013303D00C5001430C60014303E00A7
:10206000A3001530A600C03023008F0090014F3030
:102070008D0020009311230090120800F400F3015A
:10208000741C4328442848287108F2007208F3079A
:102090000310F10D0310F40C7408031D502851288F
:1020A000402873080800F5007508031D58285928B2
:1020B0005E280130F3000030F40065287508F10057
:1020C000F2017108F3007208F4007308F10071085E
:1020D0002000EF0008007508803AF6008030760294
:1020E000031D742801307402031877287828842887
:1020F0007409F6007509F700F60A0319F70A76085D
:10210000F4007708F50084280800F5007508F3004E
:102110007308F4008F280130F3007308F507750881
:102120008600013087000108031D972898288B2816
:1021300074087502F100F201F11BF2030800FF348C
:10214000FF34FF34FF3401340034003406340234E9
:102150003C347E347E347E343C34733498340034E2
:1021600000341E340D3401348034803480348034A3
:1021700080340034F501F601711CBF28C028C42842
:102180007308F5077408F63D0130F335F40D890B3B
:10219000C5280130F236F10C890BCA287108720487
:1021A000031DD328D428BC287608F2007508F10056
:1021B000080000302000A600A7000030A800A900F9
:1021C00021004A082000AB00210049082000AA0095
:1021D000210048082000AD00210047082000AC0085
:1021E0003B08AF003A08AE0096314D26903108000A
:1021F0003E00BF1CFC28FD2800299F31E2279031BA
:102200003E003F1D0429052908299F31F1279031FF
:102210003E004A1E0C290D29102990310B209031C7
:102220003E00D51E14291529182990311A20903105
:102230000800FF302000CC004C08FB002E294B0882
:10224000CD004A08CC007B084C0784004D080318D9
:102250004D0A8500000885314725913120004B0843
:10226000CD004A08CC007B08FB0A4C0784004D08CF
:1022700003184D0A85001200031D3F2940291F291C
:1022800008002000A600A401A50159292308A000E8
:10229000A1012008F1002108F2007908A20022081B
:1022A000F3009231AB22913101302000A4070030BD
:1022B000A53D24082607A0002008860001308700DD
:1022C0000108A1002108A3002308031D682969292A
:1022D000462908002000E3005F08E5005E08E400EE
:1022E0002100BB01BC0188296430E1006108CE00F7
:1022F0006008E2006208CF0063089731252791311A
:1023000020004E082100BB0720004F082100BC3DE3
:10231000200064088400650885001200031D9129CF
:102320009229742921003C082000DF0021003B088D
:102330002000DE00080000302000A3000030A200D2
:102340000030A1000030A000711CA729A829B129E4
:1023500075082000A0077608A13D7708A23D7808FF
:10236000A33D0130F535F60DF70DF80D890BB229B7
:102370000130F436F30CF20CF10C890BB929740816
:10238000730472047104031DC629C729A4292000FF
:102390002308F4002208F3002108F2002008F100CD
:1023A000080021004A0820002702031DDB29210024
:1023B0004908200026020318DE29DF29112A2100FE
:1023C000480820002902031DE929210047082000B0
:1023D00028020318EC29ED29112A9F316127913138
:1023E00020002708F4002608F3002908F600280832
:1023F000F5000130F7000030F8000130F90000303E
:10240000FA0092311222913120002B089F31D527FA
:10241000913120002A089F31D52791319F316827BB
:1024200091310800770873072000A0007808743DF8
:10243000A1002008FF3EA200FF30213DA300790843
:102440007507A0007A08763DA1002008FF3EA40091
:10245000FF30213DA5002A309F31A027923174081A
:102460009F31D527923173089F31D52792312000B3
:1024700023089F31D5279231200022089F31D5278C
:1024800092312B309F31A027923176089F31D5278A
:10249000923175089F31D5279231200025089F3150
:1024A000D5279231200024089F31D52792312C3036
:1024B0009F31A02792310800F4002300901A612A6E
:1024C000622AAA2A7408F100F201F135F20DF13501
:1024D000F20D6530710784009930723D8500000867
:1024E0008F007408F100F201F135F20DF135F20DB3
:1024F0006430710784009930723D850000089000B7
:1025000091017408F100F201F135F20DF135F20D8F
:102510006630710784009930723D850000088D0097
:102520007408F100F201F135F20DF135F20D67306A
:10253000710784009930723D85000008F300F30DA7
:10254000F30DF30D200013087306F739730693009B
:1025500023009016080073080319AF2AB02AB52A81
:102560007308031DB42AB52ABA2A710880310220E3
:102570009231F92A7308033E860087011600010490
:102580000319C32AC42AE12A7308033E860087017F
:10259000403FF400413FF500730A86008701403F49
:1025A000F600413FF7007708803AF8007508803A56
:1025B0007802031DDD2A740876020318E02AE12A56
:1025C000F92A7108F400730886008701730A8400F1
:1025D000850100080107F500750886008701740869
:1025E0008100730A86008701013081074131031899
:1025F000810A0800F50075080339F300730821000B
:10260000CE00362B4830F3007308F500F030C900D7
:102610000030CA004030C7000130C8004C2B2830C1
:10262000F3007308F5004030C9000130CA00F030F3
:10263000C7000030C8004C2B8830F3007308F50049
:10264000F030C9000030CA004030C7000130C80077
:102650004C2BE830F3007308F5004030C90001301E
:10266000CA00F030C7000030C8004C2B4E08F30001
:10267000F4017408003A03193E2B4C2B7308003AFE
:102680000319022B013A03190F2B033A03191C2BD0
:10269000013A0319292B4C2B9F3161279231363097
:1026A0009F31A027923175089F31D52792319F31F4
:1026B0006827923108002000EE0001309231FA22A2
:1026C000933168302100DB00E430890B652BDB0B94
:1026D000652B00009630F1000030F2000030F3006E
:1026E000F4009F31AA279331023090315320933167
:1026F0000030F100F2000030F300F4009F31B42705
:102700009331CF302000CA000030CB009131192125
:1027100093319630F1000030F2000030F300F40005
:102720009F31AA279331E030F1000730F2009F314A
:10273000BE2793315E302000E6009930E7006E0836
:102740002100DB00DC015B082000E80021005C08C0
:102750002000E9006D082100DD00DE015D08200099
:10276000EA0021005E082000EB00CF308731D1273E
:102770009331CF302000CA000030CB0091311921B5
:10278000933100309231FA2293310800210046083B
:102790002000D700210045082000D6002100440871
:1027A0002000D900210043082000D8002100230880
:1027B0002000DB00210022082000DA00210021088F
:1027C0002000DD00210020082000DC006F08FB0055
:1027D0007B08DE004C08F2004B08F1004E08F400C4
:1027E0004D08F3009F31AA279331200055089031FE
:1027F0005320933120005208F2005108F100540890
:10280000F4005308F3009F31B4279331200050089F
:10281000BB004F08BA008D31C32593312000570803
:102820002100C600200056082100C50020005908DC
:102830002100C400200058082100C30020005B08CC
:102840002100A30020005A082100A20020005D08FA
:102850002100A10020005C082100A00020005E08EB
:10286000FB007B08EF00080020009A01990101306D
:10287000960097010330980007309500FE309100D4
:10288000FF309200B4309300FF309400FF303E00E0
:10289000D9008430CE00EF30C3000730E400F830B8
:1028A000B800DA01E501C401B901CF01E601BA01BE
:1028B000C501D001DB01FF30BB00FF30C600FF3097
:1028C000D100FF30DC000730E700FF30BC00FF30F4
:1028D000C700FF30D200FF30DD000730E800BF1036
:1028E0003F11BE143E15BD103D114A124916481243
:1028F000D512D416D3125B30F1001F30F2009F3195
:10290000772794315C30F1001F30F2009F317D2732
:1029100094315D30F1001F30F2009F3183279431F4
:102920000030F1001030F2009F31892794312E00E1
:10293000161613303D00C50014303E00A3001530BC
:10294000A60014303D00C600080021004A082000FF
:102950002702031DAF2C210049082000260203187E
:10296000B22CB32C242D2100480820002902031D7D
:10297000BD2C21004708200028020318C02CC12CC0
:10298000242D2A082B040319C62CC72C242D2D080E
:10299000AE002E08B2002C08AE002E08B3002A08A4
:1029A0002807AE002B08293DAF002E08FF3EB000DF
:1029B000FF302F3DB1002100480820003102031DE7
:1029C000E52C2100470820003002031CE82CE92CEC
:1029D000F32C2808210047022000AA002908210022
:1029E000483B2000AB009F3161279431200027082D
:1029F000F4002608F3002908F6002808F500013045
:102A0000F7000030F8002B08FA002A08F90092318C
:102A100012229431142D32089F31D5279431200091
:102A200033089F31D527943101302000AA020030AD
:102A3000AB3B2A0A031D202D2B0A031D202D212D1F
:102A40000B2D9F31682794310800200016140530A3
:102A5000F4000F30F300F130890B2C2DF30B2C2DEB
:102A6000F40B2C2D0000200016100530F4000F3060
:102A7000F300F130890B3A2DF30B3A2DF40B3A2D7C
:102A80000000200016140930F4001E30F300E4307A
:102A9000890B482DF30B482DF40B482D00322000F4
:102AA00018149F31612795310030F8009830F900F3
:102AB00078088400790885000008F3007308F7009F
:102AC0000130F8070030F93D9F2D77089F31A0278E
:102AD000953178088400790885000008F3007308B0
:102AE000F6000130F8070030F93D76087F39F30031
:102AF0007308F500872D78088400790885000008A0
:102B00009F31D52795310130F8070030F93D01306C
:102B1000F502750A031D8D2D8E2D7B2DF61F912D2F
:102B2000922D582D0730F4001730F3006A30890BCE
:102B3000972DF30B972DF40B972D0032582D770816
:102B4000031DA32DA42D652D9F3168279531F030ED
:102B50002100C9000030CA004030C7000130C80061
:102B6000CE0108002000E6015F08860060088700AB
:102B7000433101080319BD2DBE2DD02DF830E100E1
:102B80006108F1005F088600600887004231010893
:102B900090313E209531403E2000E2006208E60080
:102BA0005F0886006008870049310108E100E20102
:102BB0006108CB006208CC006608E300E40163080A
:102BC000CD006408CE005F08043ECF000030603DB9
:102BD000D0000030D100D2000030D300D4005F0814
:102BE00086006008870042310108E5006508D500CD
:102BF0009331C623953120005F0886006008870066
:102C000001080319042E052E142E5F0886006008A3
:102C1000870041310108E1005F08860060088700F5
:102C2000493161088107202E5F088600600887000F
:102C300041315F0884006008850009310108800285
:102C40005F0886006008870049310108E100E20161
:102C50006108CB006208CC006608E300E401630869
:102C6000CD006408CE005F08043ECF000030603D18
:102C7000D000E030D1000730D2000030D300D400C3
:102C80005F0886006008870042310108E50065089A
:102C9000D5009331C6239531080020002A082B0463
:102CA0000319532E542E242F2C082D040319592EAA
:102CB0005A2E242F2F08B0003008B8002E08B0007C
:102CC0003008B90021004A0820002702031D6C2E9D
:102CD000210049082000260203186F2E702E242F91
:102CE0002100480820002902031D7A2E21004708F0
:102CF00020002802031C7D2E7E2E7F2E242F2A08E2
:102D00002607B0002B08273DB1003008FF3EB20077
:102D1000FF30313DB30021004A0820003302031D7B
:102D2000952E2100490820003202031C982E992E6E
:102D3000A32E2608210049022000AA00270821000E
:102D40004A3B2000AB002C082807B0002D08293D85
:102D5000B1003008FF3EB200FF30313DB30021002A
:102D6000480820003302031DB92E21004708200027
:102D70003202031CBC2EBD2EC72E2808210047029C
:102D80002000AC0029082100483B2000AD009F3105
:102D90006127963120002708F4002608F30029084F
:102DA000F6002808F5002B08F8002A08F7002D087F
:102DB000FA002C08F90092311222963120002A08DC
:102DC000F1002B08F200F301F4012C08F5002D08A6
:102DD000F600F701F80191319B219631740820002B
:102DE000B7007308B6007208B5007108B400022F6E
:102DF000200038089F31D5279631200039089F31AF
:102E0000D527963101302000B0000030B1000030ED
:102E1000B2000030B3003008B4023108B53B3208CC
:102E2000B63B3308B73B340A031D202F350A031D78
:102E3000202F360A031D202F370A031D202F212F94
:102E4000F82E9F316827963108002000DD004E08DB
:102E500086008701403FD000413FD10050088400E8
:102E6000510885001200253A031D372F382FDC2F1B
:102E70004E08860087010130810741310318810A1D
:102E80002100BD01BE01C101C201FF30BF00FF3002
:102E9000C00020004E0886008701403FD000413F1F
:102EA000D10050088400510885001200643A0319CB
:102EB0005A2F5B2F6C2F4E0886008701403FD000B1
:102EC000413FD10050088400510885001200693A42
:102ED000031D6B2F6C2FA72F4E0886008701013032
:102EE000810741310318810A4F08860087010108D4
:102EF0008400850102308107003FD000013FD100EE
:102F00005008D5005108D600890D893B8909D700A2
:102F1000D800D900DA00DB00DC005508B000560804
:102F2000B1005708B2005808B3005908B4005A0855
:102F3000B5005B08B6005C08B7005D088A314A221C
:102F4000973120003108CF003008CE00FF2F4E0807
:102F500086008701403FD000413FD10050088400E7
:102F6000510885001200253A031DB72FB82FD12F25
:102F70004E08860087010130810741310318810A1C
:102F80002530F1000030F2005D08D0005008F30059
:102F90009231AB22973101302000CE000030CF00BB
:102FA000FF2F4E0886008701013081074131031849
:102FB000810ACE01CF01FF2F4E0886008701403FD6
:102FC000D000413FD100500884005108850000081E
:102FD000D200D3015208F1005308F2005D08D4007A
:102FE0005408F3009231AB22973120004E0886003E
:102FF00087010130810741310318810ACB2F080076
:10300000EF340334033480340234CF3403340034D7
:10301000C1343034ED340434643403341234813434
:10302000E8340334853400347834CB34053439340F
:103030002C34003434340234F73401342034EA348C
:10304000023400340034C03401342334C134013438
:103050001034C53402343E342834C7340134863445
:103060003634013448343734013400343A340134CE
:103070005534B134023400341834B63403340834CF
:1030800082342734F23401340034263401340134DC
:10309000E0340F340F3431342B340C340E34083414
:1030A0004E34F13437340734103403340E340934D9
:1030B0000034E1340F3400340E341434033411344A
:1030C00007343134C134483408340F340C343134CB
:1030D00036340F341134803429348034003477345A
:1030E00069347434683420346334723469346E342F
:1030F0006B346C3479342034623469346E34643423
:103100006C34653477347534723464346C346534BB
:1031100073342C340D340A3400346D347934203453
:1031200066346F346F346E34743469346E3467349B
:1031300020347434753472346C3469346E346734CA
:10314000643472346F346D34653473342E340D341A
:103150000A34003441346E346434203468346F34BB
:103160006F347034743469346F34753473346C3440
:10317000793420346434723461346E3467346C349E
:10318000653420346D3465340D340A3400347734BA
:1031900069347434683420346D34793420346234C2
:1031A0006C347534723467346C346534633472341F
:1031B00075346E346334683465346F346E342C3453
:1031C0000D340A3400344F347234203449342034FE
:1031D000773469346C346C342034723465346E3432
:1031E0006434203474346834653465340D340A34FE
:1031F000003469346E3420347434683465342034D7
:1032000067346F34623462346534723477346134D5
:103210007234743473340D340A34003473346534C6
:1032200065342034693466342034493420346434BD
:103230006F346E342734743421340D340A3400343E
:103240004934203469346D3470346C346F347234E2
:103250006534203474346834653465342C340D346A
:103260000A340034483465346C346C346F342034A0
:1032700057346F3472346C34643421340D340A346E
:1032800000344434453441344434423445344534C4
:1032900046340D340A340034313432343334343467
:1032A0002E34353436340D340A3400344734723415
:1032B0006F346F3470340D340A340034253469347B
:1032C0003A342534693400340034C0344F34003487
:103EB600080008000800FC01FC0A08002000181091
:103EC60008002100CD01CD0A080020000C141814AA
:103ED60008000230F0007008FC0008000230F00014
:103EE60070082100CD00080072082100EB0071085F
:103EF600EA00080072082100E9007108E8000800DD
:103F060072082100E7007108E60008007208210027
:103F1600E5007108E40008002F009601970198015A
:103F260099019A019B010800603031008D008F01D4
:103F360091010630930092010800F20020000C1057
:103F460072089F31D5279F3120000C140800720893
:103F56002100C6007108C5007408C4007308C300B8
:103F6600080072082100A3007108A2007408A100CD
:103F76007308A000080072082100A1007108A000C3
:103F86002108A3002008A20008009F318F279F3137
:103F9600903129209F31943134249F319F319727C6
:103FA6009F310800F100710823008C002E000F1CC1
:103FB600DD2FDE2FD92F0F1023000C08080021005B
:103FC6006A086B040319E82FE92FEE2F6B088A00A5
:103FD6006A080A009F313E00BF10080021006808E9
:103FE60069040319F72FF82FFD2F69088A0068085E
:0A3FF6000A009F313E003F11080051
:020000040001F9
:0A000E00EC3FFF3F9F3FFF3FFF3F25
:00000001FF
