:020000040000FA
:08000000803102288731FD2F39
:100F16002F0096019701980199019A019B010800FB
:100F2600623031008D008F019101023093009201F1
:100F3600080087318B2787318731C327873187316F
:100F460093278731080087319C2787310230F100CB
:100F56004530F000AA30890BAE2FF00BAE2FF10B07
:100F6600AE2F03102000991C03140318BB2FBE2FAD
:100F760020009914C02F20009910A92F8031022833
:100F860020009A0199019601970198010730950072
:100F9600FF309100FF309200FF309300FD30940047
:100FA600FD303E00D900FF30CE00FF30C3000730D1
:100FB600E400FF30B800DA01E501C401B901CF0150
:100FC600E601BA01C501D001DB01FF30BB00FF30ED
:100FD600C600FF30D100FF30DC000730E700FF30ED
:100FE600BC00FF30C700FF30D200FF30DD00073005
:0A0FF600E800080020008731A62F54
:020000040001F9
:0A000E00EC3FFF3F9F3FFF3FFF3F25
:00000001FF
