:020000040000FA
:08000000803102288731E42F52
:1000BC0020001810080020000C1418140800FF343D
:1000CC00FF34FF34FF34013401342F0096019701C3
:1000DC00980199019A019B010800603031008D0054
:1000EC008F0191010630930092010800F10020006D
:1000FC000C1071088031A720803120000C140800EE
:10010C0071082000D4007008D3007308D200720864
:10011C00D100080071082000DB007008DA005B08D1
:10012C00DD005A08DC00080080316B208031803102
:10013C00B42080318131D3218031803173208031E2
:10014C000800F000700823008C002E000F1CAF2854
:10015C00B028AB280F1023000C08080013303D000A
:10016C00C5001430C60014303E00A3001530A600A4
:10017C00C03023008F00900101308D0020009311BE
:10018C0023009012080000302000A400A5000030CD
:10019C00A600A7005808A9005708A8005608AB00ED
:1001AC005508AA003908AD003808AC008531062581
:1001BC0080310800F4007408031DE528E628EB28BC
:1001CC000130F2000030F300F2287408F000F10165
:1001DC007008F2007108F3007208F000700820003B
:1001EC00DF000800F401F501701CFD28FE2802292F
:1001FC007208F4077308F53D0130F235F30D890BE5
:10020C0003290130F136F00C890B082970087104B0
:10021C00031D11291229FA287508F1007408F00041
:10022C00080000302000B800B9008031C9208131AD
:10023C0000302000B800F830B9008031C92081317D
:10024C00E0302000B8000730B9008031C92081317E
:10025C001F302000B8000030B9008031C920813136
:10026C0000302000B800B9008031C920813108006D
:10027C00FF302000CA004A08CD0053294908CB00A2
:10028C004808CA004D084A0784004B0803184B0A5B
:10029C00850000088531C625813120004908CB0036
:1002AC004808CA004D08CD0A4A0784004B080318B9
:1002BC004B0A85001200031D642965294429080096
:1002CC000030FB000030FA000030F9000030F8007C
:1002DC00701C712972297A297408F8077508F93D80
:1002EC007608FA3D7708FB3D0130F435F50DF60D37
:1002FC00F70D890B7B290130F336F20CF10CF00C65
:10030C00890B82297308720471047004031D8F29F0
:10031C0090296E297B08F3007A08F2007908F10025
:10032C007808F0000800200058082502031DA029B9
:10033C00570824020318A329A429D22956082702F6
:10034C00031DAA29550826020318AD29AE29D22966
:10035C0080315E20813120002508F3002408F20052
:10036C002708F5002608F4000130F6000030F700ED
:10037C000130F8000030F900823162228131200016
:10038C0029088031A7208131200028088031A7203E
:10039C008131803161208131080020009A0199015E
:1003AC000130960097010730980007309500FE3019
:1003BC009100FF309200B4309300FF309400FF3076
:1003CC003E00D900A030CE00FF30C3000730E4005F
:1003DC00FE30B800DA01E501C401B901CF01E60134
:1003EC00BA01C501D001DB01FF30BB00FF30C600F4
:1003FC00FF30D100FF30DC000730E700FF30BC00DD
:10040C00FF30C700FF30D200FF30DD000730E800BE
:10041C0013303D00C50014303E00A3001530A6007B
:10042C0014303D00C600080080319A208231003023
:10043C008231AC2282318331CC23823100302000D6
:10044C00B800B9008031C920823181311721823145
:10045C0084315924823152302000CF002B30CE0011
:10046C000030890B372ACE0B372ACF0B372A0000E6
:10047C002000D00129302000CF009630CE007F30F4
:10048C00890B462ACE0B462ACF0B462A2000500851
:10049C008231FB2282318431592482310130200097
:1004AC00CE004E08D00704305002031C5E2A5F2A8F
:1004BC00402A3E2A8031022876087207FA00770813
:1004CC00733DFB007A08FF3E2000A000FF307B3D0F
:1004DC00A10078087407FA007908753DFB007A08CA
:1004EC00FF3EA200FF307B3DA3002A3080317C20F0
:1004FC00823173088031A720823172088031A720A5
:10050C008231200021088031A72082312000200870
:10051C008031A72082312B3080317C2082317508CC
:10052C008031A720823174088031A72082312000CD
:10053C0023088031A7208231200022088031A72097
:10054C0082312C3080317C2082310800F300230072
:10055C00901AB12AB22AFA2A7308F000F101F03588
:10056C00F10DF035F10D5F30700784008E30713D68
:10057C00850000088F007308F000F101F035F10DD3
:10058C00F035F10D5E30700784008E30713D8500C2
:10059C000008900091017308F000F101F035F10DA5
:1005AC00F035F10D6030700784008E30713D8500A0
:1005BC0000088D007308F000F101F035F10DF035F5
:1005CC00F10D6130700784008E30713D850000089C
:1005DC00F200F20DF20DF20D200013087206F7393D
:1005EC0072069300230090160800F4007408033977
:1005FC00F20072082000D900372B4830F200720844
:10060C00F400F030D7000030D8004030D500013075
:10061C00D6004D2B2830F2007208F4004030D70081
:10062C000130D800F030D5000030D6004D2B88308A
:10063C00F2007208F400F030D7000030D8004030DF
:10064C00D5000130D6004D2BE830F2007208F400D2
:10065C004030D7000130D800F030D5000030D60043
:10066C004D2B5908F200F3017308003A03193F2B84
:10067C004D2B7208003A0319032B013A0319102B66
:10068C00033A03191D2B013A03192A2B4D2B8031E8
:10069C005E208231363080317C208231740880318A
:1006AC00A720823180316120823108002000580857
:1006BC002502031D632B570824020318662B672B96
:1006CC00CB2B56082702031D6D2B55082602031849
:1006DC00702B712BCB2B280829040319762B772B25
:1006EC00CB2B2B08AC002C08FC002A08AC002C08E7
:1006FC00FD0028082607AC002908273DAD002C0872
:10070C00FF3EAE00FF302D3DAF0056082F02031DFB
:10071C00912B55082E02031C942B952B9B2B2608F2
:10072C005502A8002708563BA90080315E20833172
:10073C0020002508F3002408F2002708F5002608FD
:10074C00F4000130F6000030F7002908F900280801
:10075C00F800823162228331BB2B7C088031A720C8
:10076C0083317D088031A720833101302000A8021D
:10077C000030A93B280A031DC72B290A031DC72BD0
:10078C00C82BB32B80316120833108002000161454
:10079C000530F3000F30F200F130890BD32BF20B44
:1007AC00D32BF30BD32B0000200016100530F300D5
:1007BC000F30F200F130890BE12BF20BE12BF30B34
:1007CC00E12B0000200016140930F3001E30F2005B
:1007DC00E430890BEF2BF20BEF2BF30BEF2B0032EA
:1007EC002000181480315E2083310030F7008D30EA
:1007FC00F80077088400780885000008F200720879
:10080C00F6000130F7070030F83D462C76088031B1
:10081C007C20833177088400780885000008F2007A
:10082C007208F5000130F7070030F83D75087F3984
:10083C00F2007208F4002E2C7708840078088500EA
:10084C0000088031A72083310130F7070030F83DD4
:10085C000130F402740A031D342C352C222CF51FA4
:10086C00382C392CFF2B0730F3001730F2006A308C
:10087C00890B3E2CF20B3E2CF30B3E2C0032FF2B43
:10088C007608031D4A2C4B2C0C2C803161208331B3
:10089C00F0302000D7000030D8004030D5000130B7
:1008AC00D600D901080000302000B800B900803112
:1008BC00C92084310030F000F1000030F200F30068
:1008CC00803186208431FF30F000FF30F100803120
:1008DC009020843101308031E0208431323020008E
:1008EC00C8008E30C90081313E218431E030F000E7
:1008FC00FF30F10080319020843102308031E020D3
:10090C0084314C302000C8008E30C90081313E212A
:10091C0084310030F000F830F100803190208431C7
:10092C0003308031E020843141302000C8008E300B
:10093C00C90081313E2184313E302000C8008E3008
:10094C00C90081313E218431E030F0000730F100E4
:10095C0080319020843105308031E0208431563054
:10096C002000C8008E30C90081313E218431023014
:10097C008031E020843120302000C8008E30C90046
:10098C0081313E21843101308031E02084318D3041
:10099C002000C8008D30C90081313E218431AA303D
:1009AC002000C8008D30C90081313E2184316F3068
:1009BC002000C8008D30C90081313E218431E330E4
:1009CC002000C8008D30C90081313E218431F930BE
:1009DC002000C8008D30C90081313E218431C730E0
:1009EC002000C8008D30C90081313E2184310E3089
:1009FC002000C8008E30C90081313E2184310800AE
:100A0C0020002808290403190C2D0D2DC52D2A08AA
:100A1C002B040319122D132DC52D2D08AE002E08F5
:100A2C00B6002C08AE002E08B70058082502031D8E
:100A3C00212D570824020318242D252DC52D5608C9
:100A4C002702031D2B2D55082602031C2E2D2F2D9E
:100A5C00302DC52D28082407AE002908253DAF00F0
:100A6C002E08FF3EB000FF302F3DB1005808310278
:100A7C00031D422D57083002031C452D462D4C2DCD
:100A8C0024085702A8002508583BA9002A08260765
:100A9C00AE002B08273DAF002E08FF3EB000FF3004
:100AAC002F3DB10056083102031D5E2D5508300252
:100ABC00031C612D622D682D26085502AA002708FB
:100ACC00563BAB0080315E20853120002508F300B9
:100ADC002408F2002708F5002608F4002908F7007E
:100AEC002808F6002B08F9002A08F8008231622247
:100AFC00853120002808F0002908F100F201F301EB
:100B0C002A08F4002B08F500F601F7018131662163
:100B1C00853173082000B5007208B4007108B30069
:100B2C007008B200A32D200036088031A720853133
:100B3C00200037088031A720853101302000AE001D
:100B4C000030AF000030B0000030B1002E08B2020F
:100B5C002F08B33B3008B43B3108B53B320A031DB8
:100B6C00C12D330A031DC12D340A031DC12D350AB5
:100B7C00031DC12DC22D992D8031612085310800B6
:100B8C002000C50020304506031DCD2DCE2DDA2DBD
:100B9C0053085404031DD32DD42DDA2D5E080319EC
:100BAC00D82DD92DDA2DE32F0D304506031DDF2D61
:100BBC00E02DE32DD301D401E32F0A304506031DAC
:100BCC00E82DE92DF72D5F08B800B901B835B90D3E
:100BDC00B835B90DB835B90D3808D1073908D23D3B
:100BEC00E32FC7014508B800B9013808F0003908EF
:100BFC00F1000530F2000030F3008031F82085312F
:100C0C0000302000BA008830BB0070083A07BC00E6
:100C1C0071083B3DBD0047083C0784003D080318A4
:100C2C003D0A85000008BE003E08C400C601441CF5
:100C3C00202E212E822E5F03031D252E262E3C2EC8
:100C4C0047085307A40054080318540AA500460883
:100C5C005107A60052080318520AA7005D08A90004
:100C6C005C08A800813199218531EC2E4708B80029
:100C7C00B9013808F0003908F1005F08BA00BB016F
:100C8C003A08F2003B08F3008031F820853120004F
:100C9C0053087007A4005408713DA5004608BC0019
:100CAC00BD013C08F0003D08F1005F08BE00BF012B
:100CBC003E08F2003F08F3008031F8208531200017
:100CCC0051087007A6005208713DA7005F08C000CC
:100CDC00C1014008A8004108A9005F08C200C30177
:100CEC004208AA004308AB005D08AD005C08AC00EC
:100CFC00853106258531EC2E5D085B06031D882E9B
:100D0C005C085A0603198B2E8C2EEC2E5F03031DE8
:100D1C00902E912EA72E47085307A40054080318B1
:100D2C00540AA50046085107A60052080318520A97
:100D3C00A7005B08A9005A08A800813199218531C8
:100D4C00EC2E4708B800B9013808F0003908F1005A
:100D5C005F08BA00BB013A08F2003B08F30080318F
:100D6C00F8208531200053087007A4005408713D09
:100D7C00A5004608BC00BD013C08F0003D08F10090
:100D8C005F08BE00BF013E08F2003F08F30080314F
:100D9C00F8208531200051087007A6005208713DDB
:100DAC00A7005F08C000C1014008A8004108A900C5
:100DBC005F08C200C3014208AA004308AB005B08ED
:100DCC00AD005A08AC008531062585310130200074
:100DDC00B8003808C6070310C40C08304602031CC0
:100DEC00F82EF92E1D2E0130B8003808C707053033
:100DFC004702031C022F032FF82D5D085B06031D11
:100E0C00092F5C085A0603190C2F0D2F5C2F5F035A
:100E1C00031D112F122F282F5308053EA40000305C
:100E2C00543DA5005208A7005108A6000830A800A0
:100E3C000030A9005B08AB005A08AA0083315C2380
:100E4C0085315C2F5F08B800B9013808F00039080B
:100E5C00F1000530F2000030F3008031F8208531CC
:100E6C00200053087007A4005408713DA5005208D7
:100E7C00A7005108A6005F08BA00BB013A08A800F9
:100E8C003B08A9005F08BC00BD01BC35BD0DBC35DD
:100E9C00BD0DBC35BD0D3C08AA003D08AB005B0880
:100EAC00AD005A08AC0085310625853120005F085D
:100EBC00B800B9013808F0003908F1000630F2002A
:100ECC000030F3008031F820853170082000D30702
:100EDC007108D43D5F08B800B9013808F000390832
:100EEC00F1000630F2000030F3008031F82085313B
:100EFC00200057087007BA005808713DBB00540811
:100F0C003B02031D8B2F53083A0203188E2F8F2F91
:100F1C00932F5808D4005708D3005E080319972F55
:100F2C00982FE32F5F08B800B9013808F000390892
:100F3C00F1000530F2000030F3008031F8208531EB
:100F4C00200053087007BA005408713DBB003B08E1
:100F5C005802031DB32F3A0857020318B62FB72FA8
:100F6C00E32FD301D4015F08B800B901B835B90D2E
:100F7C00B835B90DB835B90D3808D1073908D23D97
:100F8C005F08B800B901B835B90DB835B90DB83529
:100F9C00B90D55083807BA005608393DBB00520840
:100FAC003B02031DDB2F51083A020318DE2FDF2F03
:100FBC00E32F5608D2005508D10008006530840094
:100FCC00803085001200DA001200DB001200DC0019
:100FDC001200DD001200DE001200DF00D101D20190
:100FEC00D301D401D501D601D701D801D9012000F4
:100FFC0082311A2A003400340034003400343E3478
:10100C005B344F345B343E343E346B344F346B348E
:10101C003E341C343E347C343E341C3418343C3462
:10102C007E343C3418341C3457347D3457341C34DF
:10103C001C345E347F345E341C34003418343C343D
:10104C0018340034FF34E734C334E734FF3400344D
:10105C001834243418340034FF34E734DB34E734E8
:10106C00FF34303448343A3406340E3426342934C0
:10107C0079342934263440347F340534053407342C
:10108C0040347F34053425343F345A343C34E7340F
:10109C003C345A347F343E341C341C340834083409
:1010AC001C341C343E347F34143422347F342234C8
:1010BC0014345F345F3400345F345F3406340934E5
:1010CC007F3401347F3400346634893495346A3487
:1010DC00603460346034603460349434A234FF344F
:1010EC00A2349434083404347E3404340834103478
:1010FC0020347E3420341034083408342A341C3420
:10110C00083408341C342A34083408341E3410349F
:10111C001034103410340C341E340C341E340C3493
:10112C00303438343E343834303406340E343E34B3
:10113C000E340634003400340034003400340034EF
:10114C0000345F3400340034003407340034073486
:10115C00003414347F3414347F34143424342A345B
:10116C007F342A3412342334133408346434623414
:10117C00363449345634203450340034083407346F
:10118C000334003400341C34223441340034003431
:10119C00413422341C3400342A341C347F341C3443
:1011AC002A34083408343E3408340834003480348B
:1011BC0070343034003408340834083408340834BB
:1011CC00003400346034603400342034103408347B
:1011DC00043402343E345134493445343E34003402
:1011EC0042347F3440340034723449344934493405
:1011FC0046342134413449344D34333418341434A6
:10120C0012347F3410342734453445344534393462
:10121C003C344A3449344934313441342134113466
:10122C000934073436344934493449343634463475
:10123C004934493429341E34003400341434003415
:10124C000034003440343434003400340034083476
:10125C001434223441341434143414341434143407
:10126C0000344134223414340834023401345934F7
:10127C00093406343E3441345D3459344E347C34B4
:10128C001234113412347C347F34493449344934A7
:10129C0036343E3441344134413422347F34413489
:1012AC00413441343E347F34493449344934413437
:1012BC007F3409340934093401343E344134413427
:1012CC00513473347F340834083408347F34003498
:1012DC0041347F34413400342034403441343F3481
:1012EC0001347F3408341434223441347F34403494
:1012FC004034403440347F3402341C3402347F3464
:10130C007F340434083410347F343E344134413457
:10131C0041343E347F3409340934093406343E34C4
:10132C004134513421345E347F3409341934293436
:10133C004634263449344934493432340334013484
:10134C007F34013403343F344034403440343F3430
:10135C001F342034403420341F343F34403438346C
:10136C0040343F3463341434083414346334033459
:10137C0004347834043403346134593449344D34EE
:10138C00433400347F344134413441340234043426
:10139C0008341034203400344134413441347F3427
:1013AC0004340234013402340434403440344034C4
:1013BC0040344034003403340734083400342034CF
:1013CC0054345434783440347F34283444344434E2
:1013DC003834383444344434443428343834443481
:1013EC00443428347F34383454345434543418341A
:1013FC00003408347E34093402341834A434A43450
:10140C009C3478347F340834043404347834003415
:10141C0044347D34403400342034403440343D3442
:10142C0000347F34103428344434003400344134D4
:10143C007F34403400347C340434783404347834CD
:10144C007C3408340434043478343834443444342C
:10145C0044343834FC3418342434243418341834D8
:10146C00243424341834FC347C34083404340434E8
:10147C000834483454345434543424340434043448
:10148C003F34443424343C344034403420347C34B1
:10149C001C342034403420341C343C34403430343C
:1014AC0040343C34443428341034283444344C34E0
:1014BC009034903490347C344434643454344C340C
:1014CC0044340034083436344134003400340034AD
:1014DC00773400340034003441343634083400346A
:1014EC00023401340234043402343C3426342334C0
:1014FC0026343C341E34A134A134613412343A34D1
:10150C004034403420347A343834543454345534E0
:10151C0059342134553455347934413422345434CB
:10152C00543478344234213455345434783440347F
:10153C00203454345534793440340C341E34523401
:10154C0072341234393455345534553459343934A1
:10155C005434543454345934393455345434543454
:10156C0058340034003445347C3441340034023473
:10157C0045347D3442340034013445347C344034B9
:10158C007D341234113412347D34F0342834253443
:10159C002834F0347C3454345534453400342034FD
:1015AC00543454347C3454347C340A3409347F3409
:1015BC004934323449344934493432343A34443479
:1015CC00443444343A3432344A3448344834303471
:1015DC003A344134413421347A343A34423440344C
:1015EC002034783400349D34A034A0347D343D3420
:1015FC004234423442343D343D344034403440343F
:10160C003D343C342434FF342434243448347E3484
:10161C004934433466342B342F34FC342F342B347C
:10162C00FF3409342934F6342034C03488347E3401
:10163C000934033420345434543479344134003470
:10164C00003444347D3441343034483448344A34E2
:10165C00323438344034403422347A3400347A34DE
:10166C000A340A3472347D340D34193431347D34F7
:10167C002634293429342F34283426342934293477
:10168C0029342634303448344D3440342034383402
:10169C00083408340834083408340834083408345E
:1016AC0038342F341034C834AC34BA342F341034AA
:1016BC0028343434FA34003400347B3400340034AD
:1016CC00083414342A3414342234223414342A3492
:1016DC001434083455340034553400345534AA3499
:1016EC005534AA345534AA34FF345534FF345534A8
:1016FC00FF34003400340034FF3400341034103420
:10170C001034FF340034143414341434FF340034E3
:10171C0010341034FF340034FF3410341034F034EF
:10172C001034F034143414341434FC3400341434C1
:10173C001434F7340034FF3400340034FF340034F4
:10174C00FF3414341434F4340434FC3414341434AA
:10175C00173410341F34103410341F3410341F3429
:10176C001434143414341F34003410341034103442
:10177C00F03400340034003400341F34103410348E
:10178C00103410341F341034103410341034F0343E
:10179C001034003400340034FF341034103410345E
:1017AC00103410341034103410341034FF3410341E
:1017BC00003400340034FF34143400340034FF346B
:1017CC000034FF34003400341F3410341734003428
:1017DC000034FC340434F43414341434173410341A
:1017EC00173414341434F4340434F4340034003422
:1017FC00FF340034F73414341434143414341434E3
:10180C0014341434F7340034F734143414341434DA
:10181C0017341434103410341F3410341F3414346F
:10182C0014341434F434143410341034F0341034BC
:10183C00F034003400341F3410341F3400340034BE
:10184C0000341F341434003400340034FC341434A9
:10185C0000340034F0341034F03410341034FF34CD
:10186C001034FF34143414341434FF34143410345E
:10187C00103410341F340034003400340034F0348D
:10188C001034FF34FF34FF34FF34FF34F034F034C1
:10189C00F034F034F034FF34FF34FF3400340034CF
:1018AC00003400340034FF34FF340F340F340F3461
:1018BC000F340F3438344434443438344434FC3426
:1018CC004A344A344A3434347E34023402340634D2
:1018DC00063402347E3402347E340234633455349C
:1018EC004934413463343834443444343C3404345F
:1018FC0040347E3420341E342034063402347E349A
:10190C00023402349934A534E734A53499341C34A8
:10191C002A3449342A341C344C3472340134723431
:10192C004C3430344A344D344D3430343034483403
:10193C00783448343034BC3462345A3446343D3410
:10194C003E3449344934493400347E340134013452
:10195C0001347E342A342A342A342A342A34443446
:10196C0044345F3444344434403451344A34443481
:10197C004034403444344A3451344034003400341C
:10198C00FF3401340334E0348034FF340034003449
:10199C00083408346B346B3408343634123436342F
:1019AC002434363406340F3409340F3406340034FE
:1019BC00003418341834003400340034103410342B
:1019CC00003430344034FF340134013400341F34DB
:1019DC00013401341E34003419341D3417341234DC
:1019EC0000343C343C343C343C340034003400345B
:1019FC0000340034EF340334033480340234CF34F5
:101A0C0003340034C1343034ED34043464340334DE
:101A1C0012348134E8340334853400347834CB34D4
:101A2C00053439342C34003434340234F734013472
:101A3C002034EA34023400340034C034013423340A
:101A4C00C13401341034C53402343E342834C73424
:101A5C00013486343634013448343734013400349C
:101A6C003A3401345534B134023400341834B634B9
:101A7C000334083482342734F234013400342634ED
:101A8C0001340134E0340F340F3431342B340C3442
:101A9C000E3408344E34F1343734073410340334F4
:101AAC000E3409340034E1340F3400340E34143461
:101ABC000334113407343134C134483408340F340E
:101ACC000C34313436340F341134803429348034AE
:101ADC0000347734693474346834203463347234A9
:101AEC0069346E346B346C34793420346234693438
:101AFC006E3464346C3465347734753472346434D5
:101B0C006C34653473342C340D340A3400346D3435
:101B1C007934203466346F346F346E3474346934F1
:101B2C006E34673420347434753472346C346934E4
:101B3C006E346734643472346F346D34653473349A
:101B4C002E340D340A34003441346E346434203471
:101B5C0068346F346F347034743469346F34753462
:101B6C0073346C34793420346434723461346E34AC
:101B7C0067346C34653420346D3465340D340A3478
:101B8C000034773469347434683420346D347934E7
:101B9C00203462346C347534723467346C3465348C
:101BAC006334723475346E346334683465346F3432
:101BBC006E342C340D340A3400344F3472342034E7
:101BCC0049342034773469346C346C3420347234B6
:101BDC0065346E346434203474346834653465345C
:101BEC000D340A34003469346E342034743468345F
:101BFC006534203467346F34623462346534723443
:101C0C00773461347234743473340D340A340034E0
:101C1C007334653465342034693466342034493483
:101C2C00203464346F346E342734743421340D34DE
:101C3C000A3400344934203469346D3470346C34D3
:101C4C006F347234653420347434683465346534DC
:101C5C002C340D340A340034483465346C346C3410
:101C6C006F34203457346F3472346C346434213410
:101C7C000D340A3400344434453441344434423451
:101C8C004534453446340D340A340034313432345E
:101C9C00333434342E34353436340D340A34003481
:101CAC00473472346F346F3470340D340A3400346A
:081CBC000034C034013400348F
:020000040001F9
:0A000E00EC3FFF3F9F3FFF3FFF3F25
:00000001FF
